{
  "_format": "hh-sol-artifact-1",
  "contractName": "MyTokenUser",
  "sourceName": "contracts/MyTokenUser.sol",
  "abi": [
    {
      "inputs": [
        {
          "internalType": "address",
          "name": "_myTokenAddress",
          "type": "address"
        }
      ],
      "stateMutability": "nonpayable",
      "type": "constructor"
    },
    {
      "inputs": [],
      "name": "getMyBalance",
      "outputs": [
        {
          "internalType": "uint256",
          "name": "",
          "type": "uint256"
        }
      ],
      "stateMutability": "view",
      "type": "function"
    },
    {
      "inputs": [],
      "name": "myToken",
      "outputs": [
        {
          "internalType": "contract MyToken",
          "name": "",
          "type": "address"
        }
      ],
      "stateMutability": "view",
      "type": "function"
    },
    {
      "inputs": [
        {
          "internalType": "address",
          "name": "recipient",
          "type": "address"
        },
        {
          "internalType": "uint256",
          "name": "amount",
          "type": "uint256"
        }
      ],
      "name": "transferTo",
      "outputs": [],
      "stateMutability": "nonpayable",
      "type": "function"
    }
  ],
  "bytecode": "0x608060405234801561001057600080fd5b506040516105a33803806105a38339818101604052810190610032919061008d565b806000806101000a81548173ffffffffffffffffffffffffffffffffffffffff021916908373ffffffffffffffffffffffffffffffffffffffff160217905550506100ff565b600081519050610087816100e8565b92915050565b60006020828403121561009f57600080fd5b60006100ad84828501610078565b91505092915050565b60006100c1826100c8565b9050919050565b600073ffffffffffffffffffffffffffffffffffffffff82169050919050565b6100f1816100b6565b81146100fc57600080fd5b50565b6104958061010e6000396000f3fe608060405234801561001057600080fd5b50600436106100415760003560e01c80632ccb1b30146100465780634c73890914610062578063b8fcf93714610080575b600080fd5b610060600480360381019061005b9190610279565b61009e565b005b61006a610150565b6040516100779190610393565b60405180910390f35b610088610201565b6040516100959190610378565b60405180910390f35b60008054906101000a900473ffffffffffffffffffffffffffffffffffffffff1673ffffffffffffffffffffffffffffffffffffffff1663a9059cbb83836040518363ffffffff1660e01b81526004016100f992919061034f565b602060405180830381600087803b15801561011357600080fd5b505af1158015610127573d6000803e3d6000fd5b505050506040513d601f19601f8201168201806040525081019061014b91906102b5565b505050565b60008060009054906101000a900473ffffffffffffffffffffffffffffffffffffffff1673ffffffffffffffffffffffffffffffffffffffff166370a08231336040518263ffffffff1660e01b81526004016101ac9190610334565b60206040518083038186803b1580156101c457600080fd5b505afa1580156101d8573d6000803e3d6000fd5b505050506040513d601f19601f820116820180604052508101906101fc91906102de565b905090565b60008054906101000a900473ffffffffffffffffffffffffffffffffffffffff1681565b6000813590506102348161041a565b92915050565b60008151905061024981610431565b92915050565b60008135905061025e81610448565b92915050565b60008151905061027381610448565b92915050565b6000806040838503121561028c57600080fd5b600061029a85828601610225565b92505060206102ab8582860161024f565b9150509250929050565b6000602082840312156102c757600080fd5b60006102d58482850161023a565b91505092915050565b6000602082840312156102f057600080fd5b60006102fe84828501610264565b91505092915050565b610310816103ae565b82525050565b61031f816103f6565b82525050565b61032e816103ec565b82525050565b60006020820190506103496000830184610307565b92915050565b60006040820190506103646000830185610307565b6103716020830184610325565b9392505050565b600060208201905061038d6000830184610316565b92915050565b60006020820190506103a86000830184610325565b92915050565b60006103b9826103cc565b9050919050565b60008115159050919050565b600073ffffffffffffffffffffffffffffffffffffffff82169050919050565b6000819050919050565b600061040182610408565b9050919050565b6000610413826103cc565b9050919050565b610423816103ae565b811461042e57600080fd5b50565b61043a816103c0565b811461044557600080fd5b50565b610451816103ec565b811461045c57600080fd5b5056fea2646970667358221220b29b3d58e224ec59f2e67c43f3a4c985513fe0324543baa1e6065d380b8ba52864736f6c63430008000033",
  "linkReferences": {},
  "deployedLinkReferences": {}
}