{
  "_format": "hh-sol-artifact-1",
  "contractName": "Auction",
  "sourceName": "contracts/Action.sol",
  "abi": [
    {
      "inputs": [],
      "stateMutability": "nonpayable",
      "type": "constructor"
    },
    {
      "inputs": [],
      "name": "auctionEnded",
      "outputs": [
        {
          "internalType": "bool",
          "name": "",
          "type": "bool"
        }
      ],
      "stateMutability": "view",
      "type": "function"
    },
    {
      "inputs": [],
      "name": "bid",
      "outputs": [],
      "stateMutability": "payable",
      "type": "function"
    },
    {
      "inputs": [],
      "name": "endAuction",
      "outputs": [],
      "stateMutability": "nonpayable",
      "type": "function"
    },
    {
      "inputs": [],
      "name": "highestBid",
      "outputs": [
        {
          "internalType": "uint256",
          "name": "",
          "type": "uint256"
        }
      ],
      "stateMutability": "view",
      "type": "function"
    },
    {
      "inputs": [],
      "name": "highestBidder",
      "outputs": [
        {
          "internalType": "address",
          "name": "",
          "type": "address"
        }
      ],
      "stateMutability": "view",
      "type": "function"
    },
    {
      "inputs": [],
      "name": "withdraw",
      "outputs": [],
      "stateMutability": "nonpayable",
      "type": "function"
    }
  ],
  "bytecode": "0x608060405234801561001057600080fd5b506000600260006101000a81548160ff02191690831515021790555061071b8061003b6000396000f3fe6080604052600436106100555760003560e01c80631998aeef1461005a5780633ccfd60b14610064578063864333741461007b57806391f90157146100a6578063d57bde79146100d1578063fe67a54b146100fc575b600080fd5b610062610113565b005b34801561007057600080fd5b506100796102ae565b005b34801561008757600080fd5b506100906103e4565b60405161009d91906105d6565b60405180910390f35b3480156100b257600080fd5b506100bb6103f7565b6040516100c891906105bb565b60405180910390f35b3480156100dd57600080fd5b506100e661041b565b6040516100f39190610671565b60405180910390f35b34801561010857600080fd5b50610111610421565b005b600260009054906101000a900460ff1615610163576040517f08c379a000000000000000000000000000000000000000000000000000000000815260040161015a90610611565b60405180910390fd5b60015434116101a7576040517f08c379a000000000000000000000000000000000000000000000000000000000815260040161019e90610631565b60405180910390fd5b600073ffffffffffffffffffffffffffffffffffffffff1660008054906101000a900473ffffffffffffffffffffffffffffffffffffffff1673ffffffffffffffffffffffffffffffffffffffff16146102655760008054906101000a900473ffffffffffffffffffffffffffffffffffffffff1673ffffffffffffffffffffffffffffffffffffffff166108fc6001549081150290604051600060405180830381858888f19350505050158015610263573d6000803e3d6000fd5b505b34600181905550336000806101000a81548173ffffffffffffffffffffffffffffffffffffffff021916908373ffffffffffffffffffffffffffffffffffffffff160217905550565b600260009054906101000a900460ff166102fd576040517f08c379a00000000000000000000000000000000000000000000000000000000081526004016102f490610651565b60405180910390fd5b60008054906101000a900473ffffffffffffffffffffffffffffffffffffffff1673ffffffffffffffffffffffffffffffffffffffff163373ffffffffffffffffffffffffffffffffffffffff161461038b576040517f08c379a0000000000000000000000000000000000000000000000000000000008152600401610382906105f1565b60405180910390fd5b6000600154905060006001819055503373ffffffffffffffffffffffffffffffffffffffff166108fc829081150290604051600060405180830381858888f193505050501580156103e0573d6000803e3d6000fd5b5050565b600260009054906101000a900460ff1681565b60008054906101000a900473ffffffffffffffffffffffffffffffffffffffff1681565b60015481565b600260009054906101000a900460ff1615610471576040517f08c379a000000000000000000000000000000000000000000000000000000000815260040161046890610611565b60405180910390fd5b6001600260006101000a81548160ff021916908315150217905550565b6104978161069d565b82525050565b6104a6816106af565b82525050565b60006104b9601f8361068c565b91507f596f7520617265206e6f74207468652068696768657374206269646465722e006000830152602082019050919050565b60006104f960168361068c565b91507f41756374696f6e20616c726561647920656e6465642e000000000000000000006000830152602082019050919050565b6000610539601e8361068c565b91507f546865726520616c7265616479206973206120686967686572206269642e00006000830152602082019050919050565b600061057960168361068c565b91507f41756374696f6e206e6f742079657420656e6465642e000000000000000000006000830152602082019050919050565b6105b5816106db565b82525050565b60006020820190506105d0600083018461048e565b92915050565b60006020820190506105eb600083018461049d565b92915050565b6000602082019050818103600083015261060a816104ac565b9050919050565b6000602082019050818103600083015261062a816104ec565b9050919050565b6000602082019050818103600083015261064a8161052c565b9050919050565b6000602082019050818103600083015261066a8161056c565b9050919050565b600060208201905061068660008301846105ac565b92915050565b600082825260208201905092915050565b60006106a8826106bb565b9050919050565b60008115159050919050565b600073ffffffffffffffffffffffffffffffffffffffff82169050919050565b600081905091905056fea2646970667358221220b5fdaf6152d516f964e55be87c9ffe9a9802c00512c5f010688110fa2745100364736f6c63430008000033",
  "linkReferences": {},
  "deployedLinkReferences": {}
}