{
  "_format": "hh-sol-artifact-1",
  "contractName": "MyNFT",
  "sourceName": "contracts/MyNFT.sol",
  "abi": [
    {
      "inputs": [],
      "stateMutability": "nonpayable",
      "type": "constructor"
    },
    {
      "anonymous": false,
      "inputs": [
        {
          "indexed": true,
          "internalType": "address",
          "name": "owner",
          "type": "address"
        },
        {
          "indexed": true,
          "internalType": "address",
          "name": "approved",
          "type": "address"
        },
        {
          "indexed": true,
          "internalType": "uint256",
          "name": "tokenId",
          "type": "uint256"
        }
      ],
      "name": "Approval",
      "type": "event"
    },
    {
      "anonymous": false,
      "inputs": [
        {
          "indexed": true,
          "internalType": "address",
          "name": "owner",
          "type": "address"
        },
        {
          "indexed": true,
          "internalType": "address",
          "name": "operator",
          "type": "address"
        },
        {
          "indexed": false,
          "internalType": "bool",
          "name": "approved",
          "type": "bool"
        }
      ],
      "name": "ApprovalForAll",
      "type": "event"
    },
    {
      "anonymous": false,
      "inputs": [
        {
          "indexed": false,
          "internalType": "uint256",
          "name": "_fromTokenId",
          "type": "uint256"
        },
        {
          "indexed": false,
          "internalType": "uint256",
          "name": "_toTokenId",
          "type": "uint256"
        }
      ],
      "name": "BatchMetadataUpdate",
      "type": "event"
    },
    {
      "anonymous": false,
      "inputs": [
        {
          "indexed": false,
          "internalType": "uint256",
          "name": "_tokenId",
          "type": "uint256"
        }
      ],
      "name": "MetadataUpdate",
      "type": "event"
    },
    {
      "anonymous": false,
      "inputs": [
        {
          "indexed": true,
          "internalType": "address",
          "name": "from",
          "type": "address"
        },
        {
          "indexed": true,
          "internalType": "address",
          "name": "to",
          "type": "address"
        },
        {
          "indexed": true,
          "internalType": "uint256",
          "name": "tokenId",
          "type": "uint256"
        }
      ],
      "name": "Transfer",
      "type": "event"
    },
    {
      "inputs": [
        {
          "internalType": "address",
          "name": "to",
          "type": "address"
        },
        {
          "internalType": "uint256",
          "name": "tokenId",
          "type": "uint256"
        }
      ],
      "name": "approve",
      "outputs": [],
      "stateMutability": "nonpayable",
      "type": "function"
    },
    {
      "inputs": [
        {
          "internalType": "address",
          "name": "owner",
          "type": "address"
        }
      ],
      "name": "balanceOf",
      "outputs": [
        {
          "internalType": "uint256",
          "name": "",
          "type": "uint256"
        }
      ],
      "stateMutability": "view",
      "type": "function"
    },
    {
      "inputs": [
        {
          "internalType": "uint256",
          "name": "tokenId",
          "type": "uint256"
        }
      ],
      "name": "getApproved",
      "outputs": [
        {
          "internalType": "address",
          "name": "",
          "type": "address"
        }
      ],
      "stateMutability": "view",
      "type": "function"
    },
    {
      "inputs": [
        {
          "internalType": "address",
          "name": "owner",
          "type": "address"
        },
        {
          "internalType": "address",
          "name": "operator",
          "type": "address"
        }
      ],
      "name": "isApprovedForAll",
      "outputs": [
        {
          "internalType": "bool",
          "name": "",
          "type": "bool"
        }
      ],
      "stateMutability": "view",
      "type": "function"
    },
    {
      "inputs": [
        {
          "internalType": "address",
          "name": "to",
          "type": "address"
        },
        {
          "internalType": "string",
          "name": "_tokenURI",
          "type": "string"
        }
      ],
      "name": "mint",
      "outputs": [],
      "stateMutability": "nonpayable",
      "type": "function"
    },
    {
      "inputs": [],
      "name": "name",
      "outputs": [
        {
          "internalType": "string",
          "name": "",
          "type": "string"
        }
      ],
      "stateMutability": "view",
      "type": "function"
    },
    {
      "inputs": [
        {
          "internalType": "uint256",
          "name": "tokenId",
          "type": "uint256"
        }
      ],
      "name": "ownerOf",
      "outputs": [
        {
          "internalType": "address",
          "name": "",
          "type": "address"
        }
      ],
      "stateMutability": "view",
      "type": "function"
    },
    {
      "inputs": [
        {
          "internalType": "address",
          "name": "from",
          "type": "address"
        },
        {
          "internalType": "address",
          "name": "to",
          "type": "address"
        },
        {
          "internalType": "uint256",
          "name": "tokenId",
          "type": "uint256"
        }
      ],
      "name": "safeTransferFrom",
      "outputs": [],
      "stateMutability": "nonpayable",
      "type": "function"
    },
    {
      "inputs": [
        {
          "internalType": "address",
          "name": "from",
          "type": "address"
        },
        {
          "internalType": "address",
          "name": "to",
          "type": "address"
        },
        {
          "internalType": "uint256",
          "name": "tokenId",
          "type": "uint256"
        },
        {
          "internalType": "bytes",
          "name": "data",
          "type": "bytes"
        }
      ],
      "name": "safeTransferFrom",
      "outputs": [],
      "stateMutability": "nonpayable",
      "type": "function"
    },
    {
      "inputs": [
        {
          "internalType": "address",
          "name": "operator",
          "type": "address"
        },
        {
          "internalType": "bool",
          "name": "approved",
          "type": "bool"
        }
      ],
      "name": "setApprovalForAll",
      "outputs": [],
      "stateMutability": "nonpayable",
      "type": "function"
    },
    {
      "inputs": [
        {
          "internalType": "bytes4",
          "name": "interfaceId",
          "type": "bytes4"
        }
      ],
      "name": "supportsInterface",
      "outputs": [
        {
          "internalType": "bool",
          "name": "",
          "type": "bool"
        }
      ],
      "stateMutability": "view",
      "type": "function"
    },
    {
      "inputs": [],
      "name": "symbol",
      "outputs": [
        {
          "internalType": "string",
          "name": "",
          "type": "string"
        }
      ],
      "stateMutability": "view",
      "type": "function"
    },
    {
      "inputs": [
        {
          "internalType": "uint256",
          "name": "tokenId",
          "type": "uint256"
        }
      ],
      "name": "tokenURI",
      "outputs": [
        {
          "internalType": "string",
          "name": "",
          "type": "string"
        }
      ],
      "stateMutability": "view",
      "type": "function"
    },
    {
      "inputs": [
        {
          "internalType": "address",
          "name": "from",
          "type": "address"
        },
        {
          "internalType": "address",
          "name": "to",
          "type": "address"
        },
        {
          "internalType": "uint256",
          "name": "tokenId",
          "type": "uint256"
        }
      ],
      "name": "transferFrom",
      "outputs": [],
      "stateMutability": "nonpayable",
      "type": "function"
    }
  ],
  "bytecode": "0x60806040523480156200001157600080fd5b506040518060400160405280600581526020017f4d794e46540000000000000000000000000000000000000000000000000000008152506040518060400160405280600481526020017f4d4e46540000000000000000000000000000000000000000000000000000000081525081600090816200008f91906200032c565b508060019081620000a191906200032c565b505050600060078190555062000413565b600081519050919050565b7f4e487b7100000000000000000000000000000000000000000000000000000000600052604160045260246000fd5b7f4e487b7100000000000000000000000000000000000000000000000000000000600052602260045260246000fd5b600060028204905060018216806200013457607f821691505b6020821081036200014a5762000149620000ec565b5b50919050565b60008190508160005260206000209050919050565b60006020601f8301049050919050565b600082821b905092915050565b600060088302620001b47fffffffffffffffffffffffffffffffffffffffffffffffffffffffffffffffff8262000175565b620001c0868362000175565b95508019841693508086168417925050509392505050565b6000819050919050565b6000819050919050565b60006200020d620002076200020184620001d8565b620001e2565b620001d8565b9050919050565b6000819050919050565b6200022983620001ec565b62000241620002388262000214565b84845462000182565b825550505050565b600090565b6200025862000249565b620002658184846200021e565b505050565b5b818110156200028d57620002816000826200024e565b6001810190506200026b565b5050565b601f821115620002dc57620002a68162000150565b620002b18462000165565b81016020851015620002c1578190505b620002d9620002d08562000165565b8301826200026a565b50505b505050565b600082821c905092915050565b60006200030160001984600802620002e1565b1980831691505092915050565b60006200031c8383620002ee565b9150826002028217905092915050565b6200033782620000b2565b67ffffffffffffffff811115620003535762000352620000bd565b5b6200035f82546200011b565b6200036c82828562000291565b600060209050601f831160018114620003a457600084156200038f578287015190505b6200039b85826200030e565b8655506200040b565b601f198416620003b48662000150565b60005b82811015620003de57848901518255600182019150602085019450602081019050620003b7565b86831015620003fe5784890151620003fa601f891682620002ee565b8355505b6001600288020188555050505b505050505050565b612b3f80620004236000396000f3fe608060405234801561001057600080fd5b50600436106100ea5760003560e01c806370a082311161008c578063b88d4fde11610066578063b88d4fde1461025b578063c87b56dd14610277578063d0def521146102a7578063e985e9c5146102c3576100ea565b806370a08231146101f157806395d89b4114610221578063a22cb4651461023f576100ea565b8063095ea7b3116100c8578063095ea7b31461016d57806323b872dd1461018957806342842e0e146101a55780636352211e146101c1576100ea565b806301ffc9a7146100ef57806306fdde031461011f578063081812fc1461013d575b600080fd5b610109600480360381019061010491906119b7565b6102f3565b60405161011691906119ff565b60405180910390f35b610127610305565b6040516101349190611aaa565b60405180910390f35b61015760048036038101906101529190611b02565b610397565b6040516101649190611b70565b60405180910390f35b61018760048036038101906101829190611bb7565b6103dd565b005b6101a3600480360381019061019e9190611bf7565b6104f4565b005b6101bf60048036038101906101ba9190611bf7565b610554565b005b6101db60048036038101906101d69190611b02565b610574565b6040516101e89190611b70565b60405180910390f35b61020b60048036038101906102069190611c4a565b6105fa565b6040516102189190611c86565b60405180910390f35b6102296106b1565b6040516102369190611aaa565b60405180910390f35b61025960048036038101906102549190611ccd565b610743565b005b61027560048036038101906102709190611e42565b610759565b005b610291600480360381019061028c9190611b02565b6107bb565b60405161029e9190611aaa565b60405180910390f35b6102c160048036038101906102bc9190611f66565b6107cd565b005b6102dd60048036038101906102d89190611fc2565b610801565b6040516102ea91906119ff565b60405180910390f35b60006102fe82610895565b9050919050565b60606000805461031490612031565b80601f016020809104026020016040519081016040528092919081815260200182805461034090612031565b801561038d5780601f106103625761010080835404028352916020019161038d565b820191906000526020600020905b81548152906001019060200180831161037057829003601f168201915b5050505050905090565b60006103a2826108f6565b6004600083815260200190815260200160002060009054906101000a900473ffffffffffffffffffffffffffffffffffffffff169050919050565b60006103e882610574565b90508073ffffffffffffffffffffffffffffffffffffffff168373ffffffffffffffffffffffffffffffffffffffff1603610458576040517f08c379a000000000000000000000000000000000000000000000000000000000815260040161044f906120d4565b60405180910390fd5b8073ffffffffffffffffffffffffffffffffffffffff16610477610941565b73ffffffffffffffffffffffffffffffffffffffff1614806104a657506104a5816104a0610941565b610801565b5b6104e5576040517f08c379a00000000000000000000000000000000000000000000000000000000081526004016104dc90612166565b60405180910390fd5b6104ef8383610949565b505050565b6105056104ff610941565b82610a02565b610544576040517f08c379a000000000000000000000000000000000000000000000000000000000815260040161053b906121f8565b60405180910390fd5b61054f838383610a97565b505050565b61056f83838360405180602001604052806000815250610759565b505050565b60008061058083610d90565b9050600073ffffffffffffffffffffffffffffffffffffffff168173ffffffffffffffffffffffffffffffffffffffff16036105f1576040517f08c379a00000000000000000000000000000000000000000000000000000000081526004016105e890612264565b60405180910390fd5b80915050919050565b60008073ffffffffffffffffffffffffffffffffffffffff168273ffffffffffffffffffffffffffffffffffffffff160361066a576040517f08c379a0000000000000000000000000000000000000000000000000000000008152600401610661906122f6565b60405180910390fd5b600360008373ffffffffffffffffffffffffffffffffffffffff1673ffffffffffffffffffffffffffffffffffffffff168152602001908152602001600020549050919050565b6060600180546106c090612031565b80601f01602080910402602001604051908101604052809291908181526020018280546106ec90612031565b80156107395780601f1061070e57610100808354040283529160200191610739565b820191906000526020600020905b81548152906001019060200180831161071c57829003601f168201915b5050505050905090565b61075561074e610941565b8383610dcd565b5050565b61076a610764610941565b83610a02565b6107a9576040517f08c379a00000000000000000000000000000000000000000000000000000000081526004016107a0906121f8565b60405180910390fd5b6107b584848484610f39565b50505050565b60606107c682610f95565b9050919050565b600760008154809291906107e090612345565b91905055506107f1826007546110a7565b6107fd600754826112c4565b5050565b6000600560008473ffffffffffffffffffffffffffffffffffffffff1673ffffffffffffffffffffffffffffffffffffffff16815260200190815260200160002060008373ffffffffffffffffffffffffffffffffffffffff1673ffffffffffffffffffffffffffffffffffffffff16815260200190815260200160002060009054906101000a900460ff16905092915050565b6000634906490660e01b7bffffffffffffffffffffffffffffffffffffffffffffffffffffffff1916827bffffffffffffffffffffffffffffffffffffffffffffffffffffffff191614806108ef57506108ee82611368565b5b9050919050565b6108ff8161144a565b61093e576040517f08c379a000000000000000000000000000000000000000000000000000000000815260040161093590612264565b60405180910390fd5b50565b600033905090565b816004600083815260200190815260200160002060006101000a81548173ffffffffffffffffffffffffffffffffffffffff021916908373ffffffffffffffffffffffffffffffffffffffff160217905550808273ffffffffffffffffffffffffffffffffffffffff166109bc83610574565b73ffffffffffffffffffffffffffffffffffffffff167f8c5be1e5ebec7d5bd14f71427d1e84f3dd0314c0f7b2291e5b200ac8c7c3b92560405160405180910390a45050565b600080610a0e83610574565b90508073ffffffffffffffffffffffffffffffffffffffff168473ffffffffffffffffffffffffffffffffffffffff161480610a505750610a4f8185610801565b5b80610a8e57508373ffffffffffffffffffffffffffffffffffffffff16610a7684610397565b73ffffffffffffffffffffffffffffffffffffffff16145b91505092915050565b8273ffffffffffffffffffffffffffffffffffffffff16610ab782610574565b73ffffffffffffffffffffffffffffffffffffffff1614610b0d576040517f08c379a0000000000000000000000000000000000000000000000000000000008152600401610b04906123ff565b60405180910390fd5b600073ffffffffffffffffffffffffffffffffffffffff168273ffffffffffffffffffffffffffffffffffffffff1603610b7c576040517f08c379a0000000000000000000000000000000000000000000000000000000008152600401610b7390612491565b60405180910390fd5b610b89838383600161148b565b8273ffffffffffffffffffffffffffffffffffffffff16610ba982610574565b73ffffffffffffffffffffffffffffffffffffffff1614610bff576040517f08c379a0000000000000000000000000000000000000000000000000000000008152600401610bf6906123ff565b60405180910390fd5b6004600082815260200190815260200160002060006101000a81549073ffffffffffffffffffffffffffffffffffffffff02191690556001600360008573ffffffffffffffffffffffffffffffffffffffff1673ffffffffffffffffffffffffffffffffffffffff168152602001908152602001600020600082825403925050819055506001600360008473ffffffffffffffffffffffffffffffffffffffff1673ffffffffffffffffffffffffffffffffffffffff16815260200190815260200160002060008282540192505081905550816002600083815260200190815260200160002060006101000a81548173ffffffffffffffffffffffffffffffffffffffff021916908373ffffffffffffffffffffffffffffffffffffffff160217905550808273ffffffffffffffffffffffffffffffffffffffff168473ffffffffffffffffffffffffffffffffffffffff167fddf252ad1be2c89b69c2b068fc378daa952ba7f163c4a11628f55a4df523b3ef60405160405180910390a4610d8b8383836001611491565b505050565b60006002600083815260200190815260200160002060009054906101000a900473ffffffffffffffffffffffffffffffffffffffff169050919050565b8173ffffffffffffffffffffffffffffffffffffffff168373ffffffffffffffffffffffffffffffffffffffff1603610e3b576040517f08c379a0000000000000000000000000000000000000000000000000000000008152600401610e32906124fd565b60405180910390fd5b80600560008573ffffffffffffffffffffffffffffffffffffffff1673ffffffffffffffffffffffffffffffffffffffff16815260200190815260200160002060008473ffffffffffffffffffffffffffffffffffffffff1673ffffffffffffffffffffffffffffffffffffffff16815260200190815260200160002060006101000a81548160ff0219169083151502179055508173ffffffffffffffffffffffffffffffffffffffff168373ffffffffffffffffffffffffffffffffffffffff167f17307eab39ab6107e8899845ad3d59bd9653f200f220920489ca2b5937696c3183604051610f2c91906119ff565b60405180910390a3505050565b610f44848484610a97565b610f5084848484611497565b610f8f576040517f08c379a0000000000000000000000000000000000000000000000000000000008152600401610f869061258f565b60405180910390fd5b50505050565b6060610fa0826108f6565b6000600660008481526020019081526020016000208054610fc090612031565b80601f0160208091040260200160405190810160405280929190818152602001828054610fec90612031565b80156110395780601f1061100e57610100808354040283529160200191611039565b820191906000526020600020905b81548152906001019060200180831161101c57829003601f168201915b50505050509050600061104a61161e565b9050600081510361105f5781925050506110a2565b60008251111561109457808260405160200161107c9291906125eb565b604051602081830303815290604052925050506110a2565b61109d84611635565b925050505b919050565b600073ffffffffffffffffffffffffffffffffffffffff168273ffffffffffffffffffffffffffffffffffffffff1603611116576040517f08c379a000000000000000000000000000000000000000000000000000000000815260040161110d9061265b565b60405180910390fd5b61111f8161144a565b1561115f576040517f08c379a0000000000000000000000000000000000000000000000000000000008152600401611156906126c7565b60405180910390fd5b61116d60008383600161148b565b6111768161144a565b156111b6576040517f08c379a00000000000000000000000000000000000000000000000000000000081526004016111ad906126c7565b60405180910390fd5b6001600360008473ffffffffffffffffffffffffffffffffffffffff1673ffffffffffffffffffffffffffffffffffffffff16815260200190815260200160002060008282540192505081905550816002600083815260200190815260200160002060006101000a81548173ffffffffffffffffffffffffffffffffffffffff021916908373ffffffffffffffffffffffffffffffffffffffff160217905550808273ffffffffffffffffffffffffffffffffffffffff16600073ffffffffffffffffffffffffffffffffffffffff167fddf252ad1be2c89b69c2b068fc378daa952ba7f163c4a11628f55a4df523b3ef60405160405180910390a46112c0600083836001611491565b5050565b6112cd8261144a565b61130c576040517f08c379a000000000000000000000000000000000000000000000000000000000815260040161130390612759565b60405180910390fd5b8060066000848152602001908152602001600020908161132c9190612925565b507ff8e1a15aba9398e019f0b49df1a4fde98ee17ae345cb5f6b5e2c27f5033e8ce78260405161135c9190611c86565b60405180910390a15050565b60007f80ac58cd000000000000000000000000000000000000000000000000000000007bffffffffffffffffffffffffffffffffffffffffffffffffffffffff1916827bffffffffffffffffffffffffffffffffffffffffffffffffffffffff1916148061143357507f5b5e139f000000000000000000000000000000000000000000000000000000007bffffffffffffffffffffffffffffffffffffffffffffffffffffffff1916827bffffffffffffffffffffffffffffffffffffffffffffffffffffffff1916145b8061144357506114428261169d565b5b9050919050565b60008073ffffffffffffffffffffffffffffffffffffffff1661146c83610d90565b73ffffffffffffffffffffffffffffffffffffffff1614159050919050565b50505050565b50505050565b60006114b88473ffffffffffffffffffffffffffffffffffffffff16611707565b15611611578373ffffffffffffffffffffffffffffffffffffffff1663150b7a026114e1610941565b8786866040518563ffffffff1660e01b81526004016115039493929190612a4c565b6020604051808303816000875af192505050801561153f57506040513d601f19601f8201168201806040525081019061153c9190612aad565b60015b6115c1573d806000811461156f576040519150601f19603f3d011682016040523d82523d6000602084013e611574565b606091505b5060008151036115b9576040517f08c379a00000000000000000000000000000000000000000000000000000000081526004016115b09061258f565b60405180910390fd5b805181602001fd5b63150b7a0260e01b7bffffffffffffffffffffffffffffffffffffffffffffffffffffffff1916817bffffffffffffffffffffffffffffffffffffffffffffffffffffffff191614915050611616565b600190505b949350505050565b606060405180602001604052806000815250905090565b6060611640826108f6565b600061164a61161e565b9050600081511161166a5760405180602001604052806000815250611695565b806116748461172a565b6040516020016116859291906125eb565b6040516020818303038152906040525b915050919050565b60007f01ffc9a7000000000000000000000000000000000000000000000000000000007bffffffffffffffffffffffffffffffffffffffffffffffffffffffff1916827bffffffffffffffffffffffffffffffffffffffffffffffffffffffff1916149050919050565b6000808273ffffffffffffffffffffffffffffffffffffffff163b119050919050565b606060006001611739846117f8565b01905060008167ffffffffffffffff81111561175857611757611d17565b5b6040519080825280601f01601f19166020018201604052801561178a5781602001600182028036833780820191505090505b509050600082602001820190505b6001156117ed578080600190039150507f3031323334353637383961626364656600000000000000000000000000000000600a86061a8153600a85816117e1576117e0612ada565b5b04945060008503611798575b819350505050919050565b600080600090507a184f03e93ff9f4daa797ed6e38ed64bf6a1f0100000000000000008310611856577a184f03e93ff9f4daa797ed6e38ed64bf6a1f010000000000000000838161184c5761184b612ada565b5b0492506040810190505b6d04ee2d6d415b85acef81000000008310611893576d04ee2d6d415b85acef8100000000838161188957611888612ada565b5b0492506020810190505b662386f26fc1000083106118c257662386f26fc1000083816118b8576118b7612ada565b5b0492506010810190505b6305f5e10083106118eb576305f5e10083816118e1576118e0612ada565b5b0492506008810190505b612710831061191057612710838161190657611905612ada565b5b0492506004810190505b60648310611933576064838161192957611928612ada565b5b0492506002810190505b600a8310611942576001810190505b80915050919050565b6000604051905090565b600080fd5b600080fd5b60007fffffffff0000000000000000000000000000000000000000000000000000000082169050919050565b6119948161195f565b811461199f57600080fd5b50565b6000813590506119b18161198b565b92915050565b6000602082840312156119cd576119cc611955565b5b60006119db848285016119a2565b91505092915050565b60008115159050919050565b6119f9816119e4565b82525050565b6000602082019050611a1460008301846119f0565b92915050565b600081519050919050565b600082825260208201905092915050565b60005b83811015611a54578082015181840152602081019050611a39565b60008484015250505050565b6000601f19601f8301169050919050565b6000611a7c82611a1a565b611a868185611a25565b9350611a96818560208601611a36565b611a9f81611a60565b840191505092915050565b60006020820190508181036000830152611ac48184611a71565b905092915050565b6000819050919050565b611adf81611acc565b8114611aea57600080fd5b50565b600081359050611afc81611ad6565b92915050565b600060208284031215611b1857611b17611955565b5b6000611b2684828501611aed565b91505092915050565b600073ffffffffffffffffffffffffffffffffffffffff82169050919050565b6000611b5a82611b2f565b9050919050565b611b6a81611b4f565b82525050565b6000602082019050611b856000830184611b61565b92915050565b611b9481611b4f565b8114611b9f57600080fd5b50565b600081359050611bb181611b8b565b92915050565b60008060408385031215611bce57611bcd611955565b5b6000611bdc85828601611ba2565b9250506020611bed85828601611aed565b9150509250929050565b600080600060608486031215611c1057611c0f611955565b5b6000611c1e86828701611ba2565b9350506020611c2f86828701611ba2565b9250506040611c4086828701611aed565b9150509250925092565b600060208284031215611c6057611c5f611955565b5b6000611c6e84828501611ba2565b91505092915050565b611c8081611acc565b82525050565b6000602082019050611c9b6000830184611c77565b92915050565b611caa816119e4565b8114611cb557600080fd5b50565b600081359050611cc781611ca1565b92915050565b60008060408385031215611ce457611ce3611955565b5b6000611cf285828601611ba2565b9250506020611d0385828601611cb8565b9150509250929050565b600080fd5b600080fd5b7f4e487b7100000000000000000000000000000000000000000000000000000000600052604160045260246000fd5b611d4f82611a60565b810181811067ffffffffffffffff82111715611d6e57611d6d611d17565b5b80604052505050565b6000611d8161194b565b9050611d8d8282611d46565b919050565b600067ffffffffffffffff821115611dad57611dac611d17565b5b611db682611a60565b9050602081019050919050565b82818337600083830152505050565b6000611de5611de084611d92565b611d77565b905082815260208101848484011115611e0157611e00611d12565b5b611e0c848285611dc3565b509392505050565b600082601f830112611e2957611e28611d0d565b5b8135611e39848260208601611dd2565b91505092915050565b60008060008060808587031215611e5c57611e5b611955565b5b6000611e6a87828801611ba2565b9450506020611e7b87828801611ba2565b9350506040611e8c87828801611aed565b925050606085013567ffffffffffffffff811115611ead57611eac61195a565b5b611eb987828801611e14565b91505092959194509250565b600067ffffffffffffffff821115611ee057611edf611d17565b5b611ee982611a60565b9050602081019050919050565b6000611f09611f0484611ec5565b611d77565b905082815260208101848484011115611f2557611f24611d12565b5b611f30848285611dc3565b509392505050565b600082601f830112611f4d57611f4c611d0d565b5b8135611f5d848260208601611ef6565b91505092915050565b60008060408385031215611f7d57611f7c611955565b5b6000611f8b85828601611ba2565b925050602083013567ffffffffffffffff811115611fac57611fab61195a565b5b611fb885828601611f38565b9150509250929050565b60008060408385031215611fd957611fd8611955565b5b6000611fe785828601611ba2565b9250506020611ff885828601611ba2565b9150509250929050565b7f4e487b7100000000000000000000000000000000000000000000000000000000600052602260045260246000fd5b6000600282049050600182168061204957607f821691505b60208210810361205c5761205b612002565b5b50919050565b7f4552433732313a20617070726f76616c20746f2063757272656e74206f776e6560008201527f7200000000000000000000000000000000000000000000000000000000000000602082015250565b60006120be602183611a25565b91506120c982612062565b604082019050919050565b600060208201905081810360008301526120ed816120b1565b9050919050565b7f4552433732313a20617070726f76652063616c6c6572206973206e6f7420746f60008201527f6b656e206f776e6572206f7220617070726f76656420666f7220616c6c000000602082015250565b6000612150603d83611a25565b915061215b826120f4565b604082019050919050565b6000602082019050818103600083015261217f81612143565b9050919050565b7f4552433732313a2063616c6c6572206973206e6f7420746f6b656e206f776e6560008201527f72206f7220617070726f76656400000000000000000000000000000000000000602082015250565b60006121e2602d83611a25565b91506121ed82612186565b604082019050919050565b60006020820190508181036000830152612211816121d5565b9050919050565b7f4552433732313a20696e76616c696420746f6b656e2049440000000000000000600082015250565b600061224e601883611a25565b915061225982612218565b602082019050919050565b6000602082019050818103600083015261227d81612241565b9050919050565b7f4552433732313a2061646472657373207a65726f206973206e6f74206120766160008201527f6c6964206f776e65720000000000000000000000000000000000000000000000602082015250565b60006122e0602983611a25565b91506122eb82612284565b604082019050919050565b6000602082019050818103600083015261230f816122d3565b9050919050565b7f4e487b7100000000000000000000000000000000000000000000000000000000600052601160045260246000fd5b600061235082611acc565b91507fffffffffffffffffffffffffffffffffffffffffffffffffffffffffffffffff820361238257612381612316565b5b600182019050919050565b7f4552433732313a207472616e736665722066726f6d20696e636f72726563742060008201527f6f776e6572000000000000000000000000000000000000000000000000000000602082015250565b60006123e9602583611a25565b91506123f48261238d565b604082019050919050565b60006020820190508181036000830152612418816123dc565b9050919050565b7f4552433732313a207472616e7366657220746f20746865207a65726f2061646460008201527f7265737300000000000000000000000000000000000000000000000000000000602082015250565b600061247b602483611a25565b91506124868261241f565b604082019050919050565b600060208201905081810360008301526124aa8161246e565b9050919050565b7f4552433732313a20617070726f766520746f2063616c6c657200000000000000600082015250565b60006124e7601983611a25565b91506124f2826124b1565b602082019050919050565b60006020820190508181036000830152612516816124da565b9050919050565b7f4552433732313a207472616e7366657220746f206e6f6e20455243373231526560008201527f63656976657220696d706c656d656e7465720000000000000000000000000000602082015250565b6000612579603283611a25565b91506125848261251d565b604082019050919050565b600060208201905081810360008301526125a88161256c565b9050919050565b600081905092915050565b60006125c582611a1a565b6125cf81856125af565b93506125df818560208601611a36565b80840191505092915050565b60006125f782856125ba565b915061260382846125ba565b91508190509392505050565b7f4552433732313a206d696e7420746f20746865207a65726f2061646472657373600082015250565b6000612645602083611a25565b91506126508261260f565b602082019050919050565b6000602082019050818103600083015261267481612638565b9050919050565b7f4552433732313a20746f6b656e20616c7265616479206d696e74656400000000600082015250565b60006126b1601c83611a25565b91506126bc8261267b565b602082019050919050565b600060208201905081810360008301526126e0816126a4565b9050919050565b7f45524337323155524953746f726167653a2055524920736574206f66206e6f6e60008201527f6578697374656e7420746f6b656e000000000000000000000000000000000000602082015250565b6000612743602e83611a25565b915061274e826126e7565b604082019050919050565b6000602082019050818103600083015261277281612736565b9050919050565b60008190508160005260206000209050919050565b60006020601f8301049050919050565b600082821b905092915050565b6000600883026127db7fffffffffffffffffffffffffffffffffffffffffffffffffffffffffffffffff8261279e565b6127e5868361279e565b95508019841693508086168417925050509392505050565b6000819050919050565b600061282261281d61281884611acc565b6127fd565b611acc565b9050919050565b6000819050919050565b61283c83612807565b61285061284882612829565b8484546127ab565b825550505050565b600090565b612865612858565b612870818484612833565b505050565b5b818110156128945761288960008261285d565b600181019050612876565b5050565b601f8211156128d9576128aa81612779565b6128b38461278e565b810160208510156128c2578190505b6128d66128ce8561278e565b830182612875565b50505b505050565b600082821c905092915050565b60006128fc600019846008026128de565b1980831691505092915050565b600061291583836128eb565b9150826002028217905092915050565b61292e82611a1a565b67ffffffffffffffff81111561294757612946611d17565b5b6129518254612031565b61295c828285612898565b600060209050601f83116001811461298f576000841561297d578287015190505b6129878582612909565b8655506129ef565b601f19841661299d86612779565b60005b828110156129c5578489015182556001820191506020850194506020810190506129a0565b868310156129e257848901516129de601f8916826128eb565b8355505b6001600288020188555050505b505050505050565b600081519050919050565b600082825260208201905092915050565b6000612a1e826129f7565b612a288185612a02565b9350612a38818560208601611a36565b612a4181611a60565b840191505092915050565b6000608082019050612a616000830187611b61565b612a6e6020830186611b61565b612a7b6040830185611c77565b8181036060830152612a8d8184612a13565b905095945050505050565b600081519050612aa78161198b565b92915050565b600060208284031215612ac357612ac2611955565b5b6000612ad184828501612a98565b91505092915050565b7f4e487b7100000000000000000000000000000000000000000000000000000000600052601260045260246000fdfea2646970667358221220b907184ee503bd2f3c6a3ac30d7fe887100ef785a8610c869ed77ffc8b884b4264736f6c63430008130033",
  "linkReferences": {},
  "deployedLinkReferences": {}
}