{
  "_format": "hh-sol-artifact-1",
  "contractName": "SimpleVoting",
  "sourceName": "contracts/SimpleVoting.sol",
  "abi": [
    {
      "inputs": [
        {
          "internalType": "uint256",
          "name": "_endBlock",
          "type": "uint256"
        }
      ],
      "stateMutability": "nonpayable",
      "type": "constructor"
    },
    {
      "inputs": [],
      "name": "endBlock",
      "outputs": [
        {
          "internalType": "uint256",
          "name": "",
          "type": "uint256"
        }
      ],
      "stateMutability": "view",
      "type": "function"
    },
    {
      "inputs": [],
      "name": "endVote",
      "outputs": [
        {
          "internalType": "string",
          "name": "",
          "type": "string"
        }
      ],
      "stateMutability": "view",
      "type": "function"
    },
    {
      "inputs": [
        {
          "internalType": "address",
          "name": "",
          "type": "address"
        }
      ],
      "name": "hasVoted",
      "outputs": [
        {
          "internalType": "bool",
          "name": "",
          "type": "bool"
        }
      ],
      "stateMutability": "view",
      "type": "function"
    },
    {
      "inputs": [
        {
          "internalType": "uint256",
          "name": "",
          "type": "uint256"
        }
      ],
      "name": "options",
      "outputs": [
        {
          "internalType": "string",
          "name": "name",
          "type": "string"
        },
        {
          "internalType": "uint256",
          "name": "voteCount",
          "type": "uint256"
        }
      ],
      "stateMutability": "view",
      "type": "function"
    },
    {
      "inputs": [
        {
          "internalType": "string",
          "name": "_name",
          "type": "string"
        }
      ],
      "name": "proposeOption",
      "outputs": [],
      "stateMutability": "nonpayable",
      "type": "function"
    },
    {
      "inputs": [
        {
          "internalType": "uint256",
          "name": "_optionId",
          "type": "uint256"
        }
      ],
      "name": "vote",
      "outputs": [],
      "stateMutability": "nonpayable",
      "type": "function"
    }
  ],
  "bytecode": "0x608060405234801561001057600080fd5b50604051610c9f380380610c9f83398181016040528101906100329190610054565b806002819055505061009e565b60008151905061004e81610087565b92915050565b60006020828403121561006657600080fd5b60006100748482850161003f565b91505092915050565b6000819050919050565b6100908161007d565b811461009b57600080fd5b50565b610bf2806100ad6000396000f3fe608060405234801561001057600080fd5b50600436106100625760003560e01c80630121b93f14610067578063083c63231461008357806308a1071d146100a157806309eef43e146100bd578063409e2205146100ed578063b92239461461011e575b600080fd5b610081600480360381019061007c91906107a6565b61013c565b005b61008b6102c8565b6040516100989190610953565b60405180910390f35b6100bb60048036038101906100b69190610765565b6102ce565b005b6100d760048036038101906100d2919061073c565b61037f565b6040516100e491906108a6565b60405180910390f35b610107600480360381019061010291906107a6565b61039f565b6040516101159291906108e3565b60405180910390f35b61012661045b565b60405161013391906108c1565b60405180910390f35b6002544310610180576040517f08c379a000000000000000000000000000000000000000000000000000000000815260040161017790610913565b60405180910390fd5b600160003373ffffffffffffffffffffffffffffffffffffffff1673ffffffffffffffffffffffffffffffffffffffff16815260200190815260200160002060009054906101000a900460ff161561020d576040517f08c379a000000000000000000000000000000000000000000000000000000000815260040161020490610933565b60405180910390fd5b60008181548110610247577f4e487b7100000000000000000000000000000000000000000000000000000000600052603260045260246000fd5b9060005260206000209060020201600101600081548092919061026990610aa7565b919050555060018060003373ffffffffffffffffffffffffffffffffffffffff1673ffffffffffffffffffffffffffffffffffffffff16815260200190815260200160002060006101000a81548160ff02191690831515021790555050565b60025481565b6002544310610312576040517f08c379a000000000000000000000000000000000000000000000000000000000815260040161030990610913565b60405180910390fd5b6000604051806040016040528083815260200160008152509080600181540180825580915050600190039060005260206000209060020201600090919091909150600082015181600001908051906020019061036f929190610607565b5060208201518160010155505050565b60016020528060005260406000206000915054906101000a900460ff1681565b600081815481106103af57600080fd5b90600052602060002090600202016000915090508060000180546103d290610a75565b80601f01602080910402602001604051908101604052809291908181526020018280546103fe90610a75565b801561044b5780601f106104205761010080835404028352916020019161044b565b820191906000526020600020905b81548152906001019060200180831161042e57829003601f168201915b5050505050908060010154905082565b606060008080600090505b60008054905081101561052b5782600082815481106104ae577f4e487b7100000000000000000000000000000000000000000000000000000000600052603260045260246000fd5b90600052602060002090600202016001015411156105185760008181548110610500577f4e487b7100000000000000000000000000000000000000000000000000000000600052603260045260246000fd5b90600052602060002090600202016001015492508091505b808061052390610aa7565b915050610466565b5060008181548110610566577f4e487b7100000000000000000000000000000000000000000000000000000000600052603260045260246000fd5b9060005260206000209060020201600001805461058290610a75565b80601f01602080910402602001604051908101604052809291908181526020018280546105ae90610a75565b80156105fb5780601f106105d0576101008083540402835291602001916105fb565b820191906000526020600020905b8154815290600101906020018083116105de57829003601f168201915b50505050509250505090565b82805461061390610a75565b90600052602060002090601f016020900481019282610635576000855561067c565b82601f1061064e57805160ff191683800117855561067c565b8280016001018555821561067c579182015b8281111561067b578251825591602001919060010190610660565b5b509050610689919061068d565b5090565b5b808211156106a657600081600090555060010161068e565b5090565b60006106bd6106b88461099f565b61096e565b9050828152602081018484840111156106d557600080fd5b6106e0848285610a33565b509392505050565b6000813590506106f781610b8e565b92915050565b600082601f83011261070e57600080fd5b813561071e8482602086016106aa565b91505092915050565b60008135905061073681610ba5565b92915050565b60006020828403121561074e57600080fd5b600061075c848285016106e8565b91505092915050565b60006020828403121561077757600080fd5b600082013567ffffffffffffffff81111561079157600080fd5b61079d848285016106fd565b91505092915050565b6000602082840312156107b857600080fd5b60006107c684828501610727565b91505092915050565b6107d8816109fd565b82525050565b60006107e9826109cf565b6107f381856109da565b9350610803818560208601610a42565b61080c81610b7d565b840191505092915050565b6000610824600e836109da565b91507f566f74652068617320656e6465640000000000000000000000000000000000006000830152602082019050919050565b60006108646016836109da565b91507f596f75206861766520616c726561647920766f746564000000000000000000006000830152602082019050919050565b6108a081610a29565b82525050565b60006020820190506108bb60008301846107cf565b92915050565b600060208201905081810360008301526108db81846107de565b905092915050565b600060408201905081810360008301526108fd81856107de565b905061090c6020830184610897565b9392505050565b6000602082019050818103600083015261092c81610817565b9050919050565b6000602082019050818103600083015261094c81610857565b9050919050565b60006020820190506109686000830184610897565b92915050565b6000604051905081810181811067ffffffffffffffff8211171561099557610994610b4e565b5b8060405250919050565b600067ffffffffffffffff8211156109ba576109b9610b4e565b5b601f19601f8301169050602081019050919050565b600081519050919050565b600082825260208201905092915050565b60006109f682610a09565b9050919050565b60008115159050919050565b600073ffffffffffffffffffffffffffffffffffffffff82169050919050565b6000819050919050565b82818337600083830152505050565b60005b83811015610a60578082015181840152602081019050610a45565b83811115610a6f576000848401525b50505050565b60006002820490506001821680610a8d57607f821691505b60208210811415610aa157610aa0610b1f565b5b50919050565b6000610ab282610a29565b91507fffffffffffffffffffffffffffffffffffffffffffffffffffffffffffffffff821415610ae557610ae4610af0565b5b600182019050919050565b7f4e487b7100000000000000000000000000000000000000000000000000000000600052601160045260246000fd5b7f4e487b7100000000000000000000000000000000000000000000000000000000600052602260045260246000fd5b7f4e487b7100000000000000000000000000000000000000000000000000000000600052604160045260246000fd5b6000601f19601f8301169050919050565b610b97816109eb565b8114610ba257600080fd5b50565b610bae81610a29565b8114610bb957600080fd5b5056fea264697066735822122083741452e52dea85677dd229cdbc6029829a5620b3723d4f02170262144d728864736f6c63430008000033",
  "linkReferences": {},
  "deployedLinkReferences": {}
}