{
  "_format": "hh-sol-artifact-1",
  "contractName": "Lottery",
  "sourceName": "contracts/Lottery.sol",
  "abi": [
    {
      "inputs": [],
      "stateMutability": "nonpayable",
      "type": "constructor"
    },
    {
      "inputs": [],
      "name": "manager",
      "outputs": [
        {
          "internalType": "address",
          "name": "",
          "type": "address"
        }
      ],
      "stateMutability": "view",
      "type": "function"
    },
    {
      "inputs": [
        {
          "internalType": "uint256",
          "name": "",
          "type": "uint256"
        }
      ],
      "name": "participants",
      "outputs": [
        {
          "internalType": "address payable",
          "name": "",
          "type": "address"
        }
      ],
      "stateMutability": "view",
      "type": "function"
    },
    {
      "inputs": [],
      "name": "participate",
      "outputs": [],
      "stateMutability": "payable",
      "type": "function"
    },
    {
      "inputs": [],
      "name": "pickWinner",
      "outputs": [],
      "stateMutability": "nonpayable",
      "type": "function"
    }
  ],
  "bytecode": "0x608060405234801561001057600080fd5b5033600160006101000a81548173ffffffffffffffffffffffffffffffffffffffff021916908373ffffffffffffffffffffffffffffffffffffffff1602179055506107dc806100616000396000f3fe60806040526004361061003f5760003560e01c806335c1d34914610044578063481c6a75146100815780635d495aea146100ac578063d11711a2146100c3575b600080fd5b34801561005057600080fd5b5061006b6004803603810190610066919061047b565b6100cd565b60405161007891906105f9565b60405180910390f35b34801561008d57600080fd5b5061009661010c565b6040516100a391906105de565b60405180910390f35b3480156100b857600080fd5b506100c1610132565b005b6100cb6102db565b005b600081815481106100dd57600080fd5b906000526020600020016000915054906101000a900473ffffffffffffffffffffffffffffffffffffffff1681565b600160009054906101000a900473ffffffffffffffffffffffffffffffffffffffff1681565b600160009054906101000a900473ffffffffffffffffffffffffffffffffffffffff1673ffffffffffffffffffffffffffffffffffffffff163373ffffffffffffffffffffffffffffffffffffffff161461018c57600080fd5b6000808054905061019b610389565b6101a5919061070f565b9050600081815481106101e1577f4e487b7100000000000000000000000000000000000000000000000000000000600052603260045260246000fd5b9060005260206000200160009054906101000a900473ffffffffffffffffffffffffffffffffffffffff1673ffffffffffffffffffffffffffffffffffffffff166108fc479081150290604051600060405180830381858888f19350505050158015610251573d6000803e3d6000fd5b50600067ffffffffffffffff811115610293577f4e487b7100000000000000000000000000000000000000000000000000000000600052604160045260246000fd5b6040519080825280602002602001820160405280156102c15781602001602082028036833780820191505090505b50600090805190602001906102d79291906103bf565b5050565b662386f26fc100003411610324576040517f08c379a000000000000000000000000000000000000000000000000000000000815260040161031b90610614565b60405180910390fd5b6000339080600181540180825580915050600190039060005260206000200160009091909190916101000a81548173ffffffffffffffffffffffffffffffffffffffff021916908373ffffffffffffffffffffffffffffffffffffffff160217905550565b6000444260006040516020016103a1939291906105a5565b6040516020818303038152906040528051906020012060001c905090565b828054828255906000526020600020908101928215610438579160200282015b828111156104375782518260006101000a81548173ffffffffffffffffffffffffffffffffffffffff021916908373ffffffffffffffffffffffffffffffffffffffff160217905550916020019190600101906103df565b5b5090506104459190610449565b5090565b5b8082111561046257600081600090555060010161044a565b5090565b6000813590506104758161078f565b92915050565b60006020828403121561048d57600080fd5b600061049b84828501610466565b91505092915050565b60006104b083836104cb565b60208301905092915050565b6104c5816106af565b82525050565b6104d4816106af565b82525050565b6104e38161069d565b82525050565b60006104f482610649565b6104fe8185610661565b935061050983610634565b8060005b838110156105415761051e8261076f565b61052888826104a4565b975061053383610654565b92505060018101905061050d565b5085935050505092915050565b600061055b60108361066c565b91507f4e6f7420656e6f756768206574686572000000000000000000000000000000006000830152602082019050919050565b61059f61059a826106e1565b610705565b82525050565b60006105b1828661058e565b6020820191506105c1828561058e565b6020820191506105d182846104e9565b9150819050949350505050565b60006020820190506105f360008301846104da565b92915050565b600060208201905061060e60008301846104bc565b92915050565b6000602082019050818103600083015261062d8161054e565b9050919050565b60008190508160005260206000209050919050565b600081549050919050565b6000600182019050919050565b600081905092915050565b600082825260208201905092915050565b600073ffffffffffffffffffffffffffffffffffffffff82169050919050565b60006106a8826106c1565b9050919050565b60006106ba826106c1565b9050919050565b600073ffffffffffffffffffffffffffffffffffffffff82169050919050565b6000819050919050565b60006106fe6106f983610782565b61067d565b9050919050565b6000819050919050565b600061071a826106e1565b9150610725836106e1565b92508261073557610734610740565b5b828206905092915050565b7f4e487b7100000000000000000000000000000000000000000000000000000000600052601260045260246000fd5b600061077b82546106eb565b9050919050565b60008160001c9050919050565b610798816106e1565b81146107a357600080fd5b5056fea2646970667358221220776c3b8d2899927ab96e8e938da0096bf60dff4bfe4ba05a0092fd38fda517ae64736f6c63430008000033",
  "linkReferences": {},
  "deployedLinkReferences": {}
}