{
  "_format": "hh-sol-artifact-1",
  "contractName": "GFGToken",
  "sourceName": "contracts/GFGToken.sol",
  "abi": [
    {
      "inputs": [],
      "stateMutability": "nonpayable",
      "type": "constructor"
    },
    {
      "anonymous": false,
      "inputs": [
        {
          "indexed": true,
          "internalType": "address",
          "name": "owner",
          "type": "address"
        },
        {
          "indexed": true,
          "internalType": "address",
          "name": "approved",
          "type": "address"
        },
        {
          "indexed": true,
          "internalType": "uint256",
          "name": "tokenId",
          "type": "uint256"
        }
      ],
      "name": "Approval",
      "type": "event"
    },
    {
      "anonymous": false,
      "inputs": [
        {
          "indexed": true,
          "internalType": "address",
          "name": "owner",
          "type": "address"
        },
        {
          "indexed": true,
          "internalType": "address",
          "name": "operator",
          "type": "address"
        },
        {
          "indexed": false,
          "internalType": "bool",
          "name": "approved",
          "type": "bool"
        }
      ],
      "name": "ApprovalForAll",
      "type": "event"
    },
    {
      "anonymous": false,
      "inputs": [
        {
          "indexed": false,
          "internalType": "uint256",
          "name": "_fromTokenId",
          "type": "uint256"
        },
        {
          "indexed": false,
          "internalType": "uint256",
          "name": "_toTokenId",
          "type": "uint256"
        }
      ],
      "name": "BatchMetadataUpdate",
      "type": "event"
    },
    {
      "anonymous": false,
      "inputs": [
        {
          "indexed": false,
          "internalType": "uint256",
          "name": "_tokenId",
          "type": "uint256"
        }
      ],
      "name": "MetadataUpdate",
      "type": "event"
    },
    {
      "anonymous": false,
      "inputs": [
        {
          "indexed": false,
          "internalType": "address",
          "name": "owner",
          "type": "address"
        },
        {
          "indexed": false,
          "internalType": "uint256",
          "name": "tokenId",
          "type": "uint256"
        }
      ],
      "name": "Minted",
      "type": "event"
    },
    {
      "anonymous": false,
      "inputs": [
        {
          "indexed": true,
          "internalType": "address",
          "name": "previousOwner",
          "type": "address"
        },
        {
          "indexed": true,
          "internalType": "address",
          "name": "newOwner",
          "type": "address"
        }
      ],
      "name": "OwnershipTransferred",
      "type": "event"
    },
    {
      "anonymous": false,
      "inputs": [
        {
          "indexed": true,
          "internalType": "address",
          "name": "from",
          "type": "address"
        },
        {
          "indexed": true,
          "internalType": "address",
          "name": "to",
          "type": "address"
        },
        {
          "indexed": true,
          "internalType": "uint256",
          "name": "tokenId",
          "type": "uint256"
        }
      ],
      "name": "Transfer",
      "type": "event"
    },
    {
      "inputs": [
        {
          "internalType": "address",
          "name": "to",
          "type": "address"
        },
        {
          "internalType": "uint256",
          "name": "tokenId",
          "type": "uint256"
        }
      ],
      "name": "approve",
      "outputs": [],
      "stateMutability": "nonpayable",
      "type": "function"
    },
    {
      "inputs": [
        {
          "internalType": "address",
          "name": "owner",
          "type": "address"
        }
      ],
      "name": "balanceOf",
      "outputs": [
        {
          "internalType": "uint256",
          "name": "",
          "type": "uint256"
        }
      ],
      "stateMutability": "view",
      "type": "function"
    },
    {
      "inputs": [
        {
          "internalType": "uint256",
          "name": "tokenId",
          "type": "uint256"
        }
      ],
      "name": "getApproved",
      "outputs": [
        {
          "internalType": "address",
          "name": "",
          "type": "address"
        }
      ],
      "stateMutability": "view",
      "type": "function"
    },
    {
      "inputs": [
        {
          "internalType": "address",
          "name": "owner",
          "type": "address"
        },
        {
          "internalType": "address",
          "name": "operator",
          "type": "address"
        }
      ],
      "name": "isApprovedForAll",
      "outputs": [
        {
          "internalType": "bool",
          "name": "",
          "type": "bool"
        }
      ],
      "stateMutability": "view",
      "type": "function"
    },
    {
      "inputs": [],
      "name": "name",
      "outputs": [
        {
          "internalType": "string",
          "name": "",
          "type": "string"
        }
      ],
      "stateMutability": "view",
      "type": "function"
    },
    {
      "inputs": [],
      "name": "owner",
      "outputs": [
        {
          "internalType": "address",
          "name": "",
          "type": "address"
        }
      ],
      "stateMutability": "view",
      "type": "function"
    },
    {
      "inputs": [
        {
          "internalType": "uint256",
          "name": "tokenId",
          "type": "uint256"
        }
      ],
      "name": "ownerOf",
      "outputs": [
        {
          "internalType": "address",
          "name": "",
          "type": "address"
        }
      ],
      "stateMutability": "view",
      "type": "function"
    },
    {
      "inputs": [],
      "name": "renounceOwnership",
      "outputs": [],
      "stateMutability": "nonpayable",
      "type": "function"
    },
    {
      "inputs": [
        {
          "internalType": "string",
          "name": "_uri",
          "type": "string"
        }
      ],
      "name": "safeMint",
      "outputs": [
        {
          "internalType": "uint256",
          "name": "",
          "type": "uint256"
        }
      ],
      "stateMutability": "nonpayable",
      "type": "function"
    },
    {
      "inputs": [
        {
          "internalType": "address",
          "name": "from",
          "type": "address"
        },
        {
          "internalType": "address",
          "name": "to",
          "type": "address"
        },
        {
          "internalType": "uint256",
          "name": "tokenId",
          "type": "uint256"
        }
      ],
      "name": "safeTransferFrom",
      "outputs": [],
      "stateMutability": "nonpayable",
      "type": "function"
    },
    {
      "inputs": [
        {
          "internalType": "address",
          "name": "from",
          "type": "address"
        },
        {
          "internalType": "address",
          "name": "to",
          "type": "address"
        },
        {
          "internalType": "uint256",
          "name": "tokenId",
          "type": "uint256"
        },
        {
          "internalType": "bytes",
          "name": "data",
          "type": "bytes"
        }
      ],
      "name": "safeTransferFrom",
      "outputs": [],
      "stateMutability": "nonpayable",
      "type": "function"
    },
    {
      "inputs": [
        {
          "internalType": "address",
          "name": "operator",
          "type": "address"
        },
        {
          "internalType": "bool",
          "name": "approved",
          "type": "bool"
        }
      ],
      "name": "setApprovalForAll",
      "outputs": [],
      "stateMutability": "nonpayable",
      "type": "function"
    },
    {
      "inputs": [
        {
          "internalType": "bytes4",
          "name": "interfaceId",
          "type": "bytes4"
        }
      ],
      "name": "supportsInterface",
      "outputs": [
        {
          "internalType": "bool",
          "name": "",
          "type": "bool"
        }
      ],
      "stateMutability": "view",
      "type": "function"
    },
    {
      "inputs": [],
      "name": "symbol",
      "outputs": [
        {
          "internalType": "string",
          "name": "",
          "type": "string"
        }
      ],
      "stateMutability": "view",
      "type": "function"
    },
    {
      "inputs": [
        {
          "internalType": "uint256",
          "name": "index",
          "type": "uint256"
        }
      ],
      "name": "tokenByIndex",
      "outputs": [
        {
          "internalType": "uint256",
          "name": "",
          "type": "uint256"
        }
      ],
      "stateMutability": "view",
      "type": "function"
    },
    {
      "inputs": [
        {
          "internalType": "address",
          "name": "owner",
          "type": "address"
        },
        {
          "internalType": "uint256",
          "name": "index",
          "type": "uint256"
        }
      ],
      "name": "tokenOfOwnerByIndex",
      "outputs": [
        {
          "internalType": "uint256",
          "name": "",
          "type": "uint256"
        }
      ],
      "stateMutability": "view",
      "type": "function"
    },
    {
      "inputs": [
        {
          "internalType": "uint256",
          "name": "tokenCount",
          "type": "uint256"
        }
      ],
      "name": "tokenURI",
      "outputs": [
        {
          "internalType": "string",
          "name": "",
          "type": "string"
        }
      ],
      "stateMutability": "view",
      "type": "function"
    },
    {
      "inputs": [],
      "name": "totalSupply",
      "outputs": [
        {
          "internalType": "uint256",
          "name": "",
          "type": "uint256"
        }
      ],
      "stateMutability": "view",
      "type": "function"
    },
    {
      "inputs": [
        {
          "internalType": "address",
          "name": "from",
          "type": "address"
        },
        {
          "internalType": "address",
          "name": "to",
          "type": "address"
        },
        {
          "internalType": "uint256",
          "name": "tokenId",
          "type": "uint256"
        }
      ],
      "name": "transferFrom",
      "outputs": [],
      "stateMutability": "nonpayable",
      "type": "function"
    },
    {
      "inputs": [
        {
          "internalType": "address",
          "name": "newOwner",
          "type": "address"
        }
      ],
      "name": "transferOwnership",
      "outputs": [],
      "stateMutability": "nonpayable",
      "type": "function"
    }
  ],
  "bytecode": "0x60806040523480156200001157600080fd5b506040518060400160405280600881526020017f474647546f6b656e0000000000000000000000000000000000000000000000008152506040518060400160405280600381526020017f474647000000000000000000000000000000000000000000000000000000000081525081600090816200008f919062000412565b508060019081620000a1919062000412565b505050620000c4620000b8620000ca60201b60201c565b620000d260201b60201c565b620004f9565b600033905090565b6000600b60009054906101000a900473ffffffffffffffffffffffffffffffffffffffff16905081600b60006101000a81548173ffffffffffffffffffffffffffffffffffffffff021916908373ffffffffffffffffffffffffffffffffffffffff1602179055508173ffffffffffffffffffffffffffffffffffffffff168173ffffffffffffffffffffffffffffffffffffffff167f8be0079c531659141344cd1fd0a4f28419497f9722a3daafe3b4186f6b6457e060405160405180910390a35050565b600081519050919050565b7f4e487b7100000000000000000000000000000000000000000000000000000000600052604160045260246000fd5b7f4e487b7100000000000000000000000000000000000000000000000000000000600052602260045260246000fd5b600060028204905060018216806200021a57607f821691505b60208210810362000230576200022f620001d2565b5b50919050565b60008190508160005260206000209050919050565b60006020601f8301049050919050565b600082821b905092915050565b6000600883026200029a7fffffffffffffffffffffffffffffffffffffffffffffffffffffffffffffffff826200025b565b620002a686836200025b565b95508019841693508086168417925050509392505050565b6000819050919050565b6000819050919050565b6000620002f3620002ed620002e784620002be565b620002c8565b620002be565b9050919050565b6000819050919050565b6200030f83620002d2565b620003276200031e82620002fa565b84845462000268565b825550505050565b600090565b6200033e6200032f565b6200034b81848462000304565b505050565b5b8181101562000373576200036760008262000334565b60018101905062000351565b5050565b601f821115620003c2576200038c8162000236565b62000397846200024b565b81016020851015620003a7578190505b620003bf620003b6856200024b565b83018262000350565b50505b505050565b600082821c905092915050565b6000620003e760001984600802620003c7565b1980831691505092915050565b6000620004028383620003d4565b9150826002028217905092915050565b6200041d8262000198565b67ffffffffffffffff811115620004395762000438620001a3565b5b62000445825462000201565b6200045282828562000377565b600060209050601f8311600181146200048a576000841562000475578287015190505b620004818582620003f4565b865550620004f1565b601f1984166200049a8662000236565b60005b82811015620004c4578489015182556001820191506020850194506020810190506200049d565b86831015620004e45784890151620004e0601f891682620003d4565b8355505b6001600288020188555050505b505050505050565b61386480620005096000396000f3fe608060405234801561001057600080fd5b506004361061012c5760003560e01c8063695850fb116100ad578063a22cb46511610071578063a22cb46514610357578063b88d4fde14610373578063c87b56dd1461038f578063e985e9c5146103bf578063f2fde38b146103ef5761012c565b8063695850fb146102b157806370a08231146102e1578063715018a6146103115780638da5cb5b1461031b57806395d89b41146103395761012c565b806323b872dd116100f457806323b872dd146101e95780632f745c591461020557806342842e0e146102355780634f6ccce7146102515780636352211e146102815761012c565b806301ffc9a71461013157806306fdde0314610161578063081812fc1461017f578063095ea7b3146101af57806318160ddd146101cb575b600080fd5b61014b600480360381019061014691906123c8565b61040b565b6040516101589190612410565b60405180910390f35b61016961041d565b60405161017691906124bb565b60405180910390f35b61019960048036038101906101949190612513565b6104af565b6040516101a69190612581565b60405180910390f35b6101c960048036038101906101c491906125c8565b6104f5565b005b6101d361060c565b6040516101e09190612617565b60405180910390f35b61020360048036038101906101fe9190612632565b610619565b005b61021f600480360381019061021a91906125c8565b610679565b60405161022c9190612617565b60405180910390f35b61024f600480360381019061024a9190612632565b61071e565b005b61026b60048036038101906102669190612513565b61073e565b6040516102789190612617565b60405180910390f35b61029b60048036038101906102969190612513565b6107af565b6040516102a89190612581565b60405180910390f35b6102cb60048036038101906102c691906127ba565b610835565b6040516102d89190612617565b60405180910390f35b6102fb60048036038101906102f69190612803565b6108ad565b6040516103089190612617565b60405180910390f35b610319610964565b005b610323610978565b6040516103309190612581565b60405180910390f35b6103416109a2565b60405161034e91906124bb565b60405180910390f35b610371600480360381019061036c919061285c565b610a34565b005b61038d6004803603810190610388919061293d565b610a4a565b005b6103a960048036038101906103a49190612513565b610aac565b6040516103b691906124bb565b60405180910390f35b6103d960048036038101906103d491906129c0565b610abe565b6040516103e69190612410565b60405180910390f35b61040960048036038101906104049190612803565b610b52565b005b600061041682610bd5565b9050919050565b60606000805461042c90612a2f565b80601f016020809104026020016040519081016040528092919081815260200182805461045890612a2f565b80156104a55780601f1061047a576101008083540402835291602001916104a5565b820191906000526020600020905b81548152906001019060200180831161048857829003601f168201915b5050505050905090565b60006104ba82610c36565b6004600083815260200190815260200160002060009054906101000a900473ffffffffffffffffffffffffffffffffffffffff169050919050565b6000610500826107af565b90508073ffffffffffffffffffffffffffffffffffffffff168373ffffffffffffffffffffffffffffffffffffffff1603610570576040517f08c379a000000000000000000000000000000000000000000000000000000000815260040161056790612ad2565b60405180910390fd5b8073ffffffffffffffffffffffffffffffffffffffff1661058f610c81565b73ffffffffffffffffffffffffffffffffffffffff1614806105be57506105bd816105b8610c81565b610abe565b5b6105fd576040517f08c379a00000000000000000000000000000000000000000000000000000000081526004016105f490612b64565b60405180910390fd5b6106078383610c89565b505050565b6000600880549050905090565b61062a610624610c81565b82610d42565b610669576040517f08c379a000000000000000000000000000000000000000000000000000000000815260040161066090612bf6565b60405180910390fd5b610674838383610dd7565b505050565b6000610684836108ad565b82106106c5576040517f08c379a00000000000000000000000000000000000000000000000000000000081526004016106bc90612c88565b60405180910390fd5b600660008473ffffffffffffffffffffffffffffffffffffffff1673ffffffffffffffffffffffffffffffffffffffff168152602001908152602001600020600083815260200190815260200160002054905092915050565b61073983838360405180602001604052806000815250610a4a565b505050565b600061074861060c565b8210610789576040517f08c379a000000000000000000000000000000000000000000000000000000000815260040161078090612d1a565b60405180910390fd5b6008828154811061079d5761079c612d3a565b5b90600052602060002001549050919050565b6000806107bb836110d0565b9050600073ffffffffffffffffffffffffffffffffffffffff168173ffffffffffffffffffffffffffffffffffffffff160361082c576040517f08c379a000000000000000000000000000000000000000000000000000000000815260040161082390612db5565b60405180910390fd5b80915050919050565b600061083f61110d565b600061084b600c61118b565b9050610857600c611199565b61086133826111af565b61086b81846111cd565b7f30385c845b448a36257a6a1716e6ad2e1bc2cbe333cde1e69fe849ad6511adfe338260405161089c929190612dd5565b60405180910390a180915050919050565b60008073ffffffffffffffffffffffffffffffffffffffff168273ffffffffffffffffffffffffffffffffffffffff160361091d576040517f08c379a000000000000000000000000000000000000000000000000000000000815260040161091490612e70565b60405180910390fd5b600360008373ffffffffffffffffffffffffffffffffffffffff1673ffffffffffffffffffffffffffffffffffffffff168152602001908152602001600020549050919050565b61096c61110d565b6109766000611271565b565b6000600b60009054906101000a900473ffffffffffffffffffffffffffffffffffffffff16905090565b6060600180546109b190612a2f565b80601f01602080910402602001604051908101604052809291908181526020018280546109dd90612a2f565b8015610a2a5780601f106109ff57610100808354040283529160200191610a2a565b820191906000526020600020905b815481529060010190602001808311610a0d57829003601f168201915b5050505050905090565b610a46610a3f610c81565b8383611337565b5050565b610a5b610a55610c81565b83610d42565b610a9a576040517f08c379a0000000000000000000000000000000000000000000000000000000008152600401610a9190612bf6565b60405180910390fd5b610aa6848484846114a3565b50505050565b6060610ab7826114ff565b9050919050565b6000600560008473ffffffffffffffffffffffffffffffffffffffff1673ffffffffffffffffffffffffffffffffffffffff16815260200190815260200160002060008373ffffffffffffffffffffffffffffffffffffffff1673ffffffffffffffffffffffffffffffffffffffff16815260200190815260200160002060009054906101000a900460ff16905092915050565b610b5a61110d565b600073ffffffffffffffffffffffffffffffffffffffff168173ffffffffffffffffffffffffffffffffffffffff1603610bc9576040517f08c379a0000000000000000000000000000000000000000000000000000000008152600401610bc090612f02565b60405180910390fd5b610bd281611271565b50565b6000634906490660e01b7bffffffffffffffffffffffffffffffffffffffffffffffffffffffff1916827bffffffffffffffffffffffffffffffffffffffffffffffffffffffff19161480610c2f5750610c2e82611611565b5b9050919050565b610c3f8161168b565b610c7e576040517f08c379a0000000000000000000000000000000000000000000000000000000008152600401610c7590612db5565b60405180910390fd5b50565b600033905090565b816004600083815260200190815260200160002060006101000a81548173ffffffffffffffffffffffffffffffffffffffff021916908373ffffffffffffffffffffffffffffffffffffffff160217905550808273ffffffffffffffffffffffffffffffffffffffff16610cfc836107af565b73ffffffffffffffffffffffffffffffffffffffff167f8c5be1e5ebec7d5bd14f71427d1e84f3dd0314c0f7b2291e5b200ac8c7c3b92560405160405180910390a45050565b600080610d4e836107af565b90508073ffffffffffffffffffffffffffffffffffffffff168473ffffffffffffffffffffffffffffffffffffffff161480610d905750610d8f8185610abe565b5b80610dce57508373ffffffffffffffffffffffffffffffffffffffff16610db6846104af565b73ffffffffffffffffffffffffffffffffffffffff16145b91505092915050565b8273ffffffffffffffffffffffffffffffffffffffff16610df7826107af565b73ffffffffffffffffffffffffffffffffffffffff1614610e4d576040517f08c379a0000000000000000000000000000000000000000000000000000000008152600401610e4490612f94565b60405180910390fd5b600073ffffffffffffffffffffffffffffffffffffffff168273ffffffffffffffffffffffffffffffffffffffff1603610ebc576040517f08c379a0000000000000000000000000000000000000000000000000000000008152600401610eb390613026565b60405180910390fd5b610ec983838360016116cc565b8273ffffffffffffffffffffffffffffffffffffffff16610ee9826107af565b73ffffffffffffffffffffffffffffffffffffffff1614610f3f576040517f08c379a0000000000000000000000000000000000000000000000000000000008152600401610f3690612f94565b60405180910390fd5b6004600082815260200190815260200160002060006101000a81549073ffffffffffffffffffffffffffffffffffffffff02191690556001600360008573ffffffffffffffffffffffffffffffffffffffff1673ffffffffffffffffffffffffffffffffffffffff168152602001908152602001600020600082825403925050819055506001600360008473ffffffffffffffffffffffffffffffffffffffff1673ffffffffffffffffffffffffffffffffffffffff16815260200190815260200160002060008282540192505081905550816002600083815260200190815260200160002060006101000a81548173ffffffffffffffffffffffffffffffffffffffff021916908373ffffffffffffffffffffffffffffffffffffffff160217905550808273ffffffffffffffffffffffffffffffffffffffff168473ffffffffffffffffffffffffffffffffffffffff167fddf252ad1be2c89b69c2b068fc378daa952ba7f163c4a11628f55a4df523b3ef60405160405180910390a46110cb83838360016116de565b505050565b60006002600083815260200190815260200160002060009054906101000a900473ffffffffffffffffffffffffffffffffffffffff169050919050565b611115610c81565b73ffffffffffffffffffffffffffffffffffffffff16611133610978565b73ffffffffffffffffffffffffffffffffffffffff1614611189576040517f08c379a000000000000000000000000000000000000000000000000000000000815260040161118090613092565b60405180910390fd5b565b600081600001549050919050565b6001816000016000828254019250508190555050565b6111c98282604051806020016040528060008152506116e4565b5050565b6111d68261168b565b611215576040517f08c379a000000000000000000000000000000000000000000000000000000000815260040161120c90613124565b60405180910390fd5b80600a6000848152602001908152602001600020908161123591906132f0565b507ff8e1a15aba9398e019f0b49df1a4fde98ee17ae345cb5f6b5e2c27f5033e8ce7826040516112659190612617565b60405180910390a15050565b6000600b60009054906101000a900473ffffffffffffffffffffffffffffffffffffffff16905081600b60006101000a81548173ffffffffffffffffffffffffffffffffffffffff021916908373ffffffffffffffffffffffffffffffffffffffff1602179055508173ffffffffffffffffffffffffffffffffffffffff168173ffffffffffffffffffffffffffffffffffffffff167f8be0079c531659141344cd1fd0a4f28419497f9722a3daafe3b4186f6b6457e060405160405180910390a35050565b8173ffffffffffffffffffffffffffffffffffffffff168373ffffffffffffffffffffffffffffffffffffffff16036113a5576040517f08c379a000000000000000000000000000000000000000000000000000000000815260040161139c9061340e565b60405180910390fd5b80600560008573ffffffffffffffffffffffffffffffffffffffff1673ffffffffffffffffffffffffffffffffffffffff16815260200190815260200160002060008473ffffffffffffffffffffffffffffffffffffffff1673ffffffffffffffffffffffffffffffffffffffff16815260200190815260200160002060006101000a81548160ff0219169083151502179055508173ffffffffffffffffffffffffffffffffffffffff168373ffffffffffffffffffffffffffffffffffffffff167f17307eab39ab6107e8899845ad3d59bd9653f200f220920489ca2b5937696c31836040516114969190612410565b60405180910390a3505050565b6114ae848484610dd7565b6114ba8484848461173f565b6114f9576040517f08c379a00000000000000000000000000000000000000000000000000000000081526004016114f0906134a0565b60405180910390fd5b50505050565b606061150a82610c36565b6000600a6000848152602001908152602001600020805461152a90612a2f565b80601f016020809104026020016040519081016040528092919081815260200182805461155690612a2f565b80156115a35780601f10611578576101008083540402835291602001916115a3565b820191906000526020600020905b81548152906001019060200180831161158657829003601f168201915b5050505050905060006115b46118c6565b905060008151036115c957819250505061160c565b6000825111156115fe5780826040516020016115e69291906134fc565b6040516020818303038152906040529250505061160c565b611607846118dd565b925050505b919050565b60007f780e9d63000000000000000000000000000000000000000000000000000000007bffffffffffffffffffffffffffffffffffffffffffffffffffffffff1916827bffffffffffffffffffffffffffffffffffffffffffffffffffffffff19161480611684575061168382611945565b5b9050919050565b60008073ffffffffffffffffffffffffffffffffffffffff166116ad836110d0565b73ffffffffffffffffffffffffffffffffffffffff1614159050919050565b6116d884848484611a27565b50505050565b50505050565b6116ee8383611b85565b6116fb600084848461173f565b61173a576040517f08c379a0000000000000000000000000000000000000000000000000000000008152600401611731906134a0565b60405180910390fd5b505050565b60006117608473ffffffffffffffffffffffffffffffffffffffff16611da2565b156118b9578373ffffffffffffffffffffffffffffffffffffffff1663150b7a02611789610c81565b8786866040518563ffffffff1660e01b81526004016117ab9493929190613575565b6020604051808303816000875af19250505080156117e757506040513d601f19601f820116820180604052508101906117e491906135d6565b60015b611869573d8060008114611817576040519150601f19603f3d011682016040523d82523d6000602084013e61181c565b606091505b506000815103611861576040517f08c379a0000000000000000000000000000000000000000000000000000000008152600401611858906134a0565b60405180910390fd5b805181602001fd5b63150b7a0260e01b7bffffffffffffffffffffffffffffffffffffffffffffffffffffffff1916817bffffffffffffffffffffffffffffffffffffffffffffffffffffffff1916149150506118be565b600190505b949350505050565b606060405180602001604052806000815250905090565b60606118e882610c36565b60006118f26118c6565b90506000815111611912576040518060200160405280600081525061193d565b8061191c84611dc5565b60405160200161192d9291906134fc565b6040516020818303038152906040525b915050919050565b60007f80ac58cd000000000000000000000000000000000000000000000000000000007bffffffffffffffffffffffffffffffffffffffffffffffffffffffff1916827bffffffffffffffffffffffffffffffffffffffffffffffffffffffff19161480611a1057507f5b5e139f000000000000000000000000000000000000000000000000000000007bffffffffffffffffffffffffffffffffffffffffffffffffffffffff1916827bffffffffffffffffffffffffffffffffffffffffffffffffffffffff1916145b80611a205750611a1f82611e93565b5b9050919050565b611a3384848484611efd565b6001811115611a77576040517f08c379a0000000000000000000000000000000000000000000000000000000008152600401611a6e90613675565b60405180910390fd5b6000829050600073ffffffffffffffffffffffffffffffffffffffff168573ffffffffffffffffffffffffffffffffffffffff1603611abe57611ab981611f03565b611afd565b8373ffffffffffffffffffffffffffffffffffffffff168573ffffffffffffffffffffffffffffffffffffffff1614611afc57611afb8582611f4c565b5b5b600073ffffffffffffffffffffffffffffffffffffffff168473ffffffffffffffffffffffffffffffffffffffff1603611b3f57611b3a816120b9565b611b7e565b8473ffffffffffffffffffffffffffffffffffffffff168473ffffffffffffffffffffffffffffffffffffffff1614611b7d57611b7c848261218a565b5b5b5050505050565b600073ffffffffffffffffffffffffffffffffffffffff168273ffffffffffffffffffffffffffffffffffffffff1603611bf4576040517f08c379a0000000000000000000000000000000000000000000000000000000008152600401611beb906136e1565b60405180910390fd5b611bfd8161168b565b15611c3d576040517f08c379a0000000000000000000000000000000000000000000000000000000008152600401611c349061374d565b60405180910390fd5b611c4b6000838360016116cc565b611c548161168b565b15611c94576040517f08c379a0000000000000000000000000000000000000000000000000000000008152600401611c8b9061374d565b60405180910390fd5b6001600360008473ffffffffffffffffffffffffffffffffffffffff1673ffffffffffffffffffffffffffffffffffffffff16815260200190815260200160002060008282540192505081905550816002600083815260200190815260200160002060006101000a81548173ffffffffffffffffffffffffffffffffffffffff021916908373ffffffffffffffffffffffffffffffffffffffff160217905550808273ffffffffffffffffffffffffffffffffffffffff16600073ffffffffffffffffffffffffffffffffffffffff167fddf252ad1be2c89b69c2b068fc378daa952ba7f163c4a11628f55a4df523b3ef60405160405180910390a4611d9e6000838360016116de565b5050565b6000808273ffffffffffffffffffffffffffffffffffffffff163b119050919050565b606060006001611dd484612209565b01905060008167ffffffffffffffff811115611df357611df261268f565b5b6040519080825280601f01601f191660200182016040528015611e255781602001600182028036833780820191505090505b509050600082602001820190505b600115611e88578080600190039150507f3031323334353637383961626364656600000000000000000000000000000000600a86061a8153600a8581611e7c57611e7b61376d565b5b04945060008503611e33575b819350505050919050565b60007f01ffc9a7000000000000000000000000000000000000000000000000000000007bffffffffffffffffffffffffffffffffffffffffffffffffffffffff1916827bffffffffffffffffffffffffffffffffffffffffffffffffffffffff1916149050919050565b50505050565b6008805490506009600083815260200190815260200160002081905550600881908060018154018082558091505060019003906000526020600020016000909190919091505550565b60006001611f59846108ad565b611f6391906137cb565b9050600060076000848152602001908152602001600020549050818114612048576000600660008673ffffffffffffffffffffffffffffffffffffffff1673ffffffffffffffffffffffffffffffffffffffff168152602001908152602001600020600084815260200190815260200160002054905080600660008773ffffffffffffffffffffffffffffffffffffffff1673ffffffffffffffffffffffffffffffffffffffff168152602001908152602001600020600084815260200190815260200160002081905550816007600083815260200190815260200160002081905550505b6007600084815260200190815260200160002060009055600660008573ffffffffffffffffffffffffffffffffffffffff1673ffffffffffffffffffffffffffffffffffffffff16815260200190815260200160002060008381526020019081526020016000206000905550505050565b600060016008805490506120cd91906137cb565b90506000600960008481526020019081526020016000205490506000600883815481106120fd576120fc612d3a565b5b90600052602060002001549050806008838154811061211f5761211e612d3a565b5b90600052602060002001819055508160096000838152602001908152602001600020819055506009600085815260200190815260200160002060009055600880548061216e5761216d6137ff565b5b6001900381819060005260206000200160009055905550505050565b6000612195836108ad565b905081600660008573ffffffffffffffffffffffffffffffffffffffff1673ffffffffffffffffffffffffffffffffffffffff168152602001908152602001600020600083815260200190815260200160002081905550806007600084815260200190815260200160002081905550505050565b600080600090507a184f03e93ff9f4daa797ed6e38ed64bf6a1f0100000000000000008310612267577a184f03e93ff9f4daa797ed6e38ed64bf6a1f010000000000000000838161225d5761225c61376d565b5b0492506040810190505b6d04ee2d6d415b85acef810000000083106122a4576d04ee2d6d415b85acef8100000000838161229a5761229961376d565b5b0492506020810190505b662386f26fc1000083106122d357662386f26fc1000083816122c9576122c861376d565b5b0492506010810190505b6305f5e10083106122fc576305f5e10083816122f2576122f161376d565b5b0492506008810190505b61271083106123215761271083816123175761231661376d565b5b0492506004810190505b60648310612344576064838161233a5761233961376d565b5b0492506002810190505b600a8310612353576001810190505b80915050919050565b6000604051905090565b600080fd5b600080fd5b60007fffffffff0000000000000000000000000000000000000000000000000000000082169050919050565b6123a581612370565b81146123b057600080fd5b50565b6000813590506123c28161239c565b92915050565b6000602082840312156123de576123dd612366565b5b60006123ec848285016123b3565b91505092915050565b60008115159050919050565b61240a816123f5565b82525050565b60006020820190506124256000830184612401565b92915050565b600081519050919050565b600082825260208201905092915050565b60005b8381101561246557808201518184015260208101905061244a565b60008484015250505050565b6000601f19601f8301169050919050565b600061248d8261242b565b6124978185612436565b93506124a7818560208601612447565b6124b081612471565b840191505092915050565b600060208201905081810360008301526124d58184612482565b905092915050565b6000819050919050565b6124f0816124dd565b81146124fb57600080fd5b50565b60008135905061250d816124e7565b92915050565b60006020828403121561252957612528612366565b5b6000612537848285016124fe565b91505092915050565b600073ffffffffffffffffffffffffffffffffffffffff82169050919050565b600061256b82612540565b9050919050565b61257b81612560565b82525050565b60006020820190506125966000830184612572565b92915050565b6125a581612560565b81146125b057600080fd5b50565b6000813590506125c28161259c565b92915050565b600080604083850312156125df576125de612366565b5b60006125ed858286016125b3565b92505060206125fe858286016124fe565b9150509250929050565b612611816124dd565b82525050565b600060208201905061262c6000830184612608565b92915050565b60008060006060848603121561264b5761264a612366565b5b6000612659868287016125b3565b935050602061266a868287016125b3565b925050604061267b868287016124fe565b9150509250925092565b600080fd5b600080fd5b7f4e487b7100000000000000000000000000000000000000000000000000000000600052604160045260246000fd5b6126c782612471565b810181811067ffffffffffffffff821117156126e6576126e561268f565b5b80604052505050565b60006126f961235c565b905061270582826126be565b919050565b600067ffffffffffffffff8211156127255761272461268f565b5b61272e82612471565b9050602081019050919050565b82818337600083830152505050565b600061275d6127588461270a565b6126ef565b9050828152602081018484840111156127795761277861268a565b5b61278484828561273b565b509392505050565b600082601f8301126127a1576127a0612685565b5b81356127b184826020860161274a565b91505092915050565b6000602082840312156127d0576127cf612366565b5b600082013567ffffffffffffffff8111156127ee576127ed61236b565b5b6127fa8482850161278c565b91505092915050565b60006020828403121561281957612818612366565b5b6000612827848285016125b3565b91505092915050565b612839816123f5565b811461284457600080fd5b50565b60008135905061285681612830565b92915050565b6000806040838503121561287357612872612366565b5b6000612881858286016125b3565b925050602061289285828601612847565b9150509250929050565b600067ffffffffffffffff8211156128b7576128b661268f565b5b6128c082612471565b9050602081019050919050565b60006128e06128db8461289c565b6126ef565b9050828152602081018484840111156128fc576128fb61268a565b5b61290784828561273b565b509392505050565b600082601f83011261292457612923612685565b5b81356129348482602086016128cd565b91505092915050565b6000806000806080858703121561295757612956612366565b5b6000612965878288016125b3565b9450506020612976878288016125b3565b9350506040612987878288016124fe565b925050606085013567ffffffffffffffff8111156129a8576129a761236b565b5b6129b48782880161290f565b91505092959194509250565b600080604083850312156129d7576129d6612366565b5b60006129e5858286016125b3565b92505060206129f6858286016125b3565b9150509250929050565b7f4e487b7100000000000000000000000000000000000000000000000000000000600052602260045260246000fd5b60006002820490506001821680612a4757607f821691505b602082108103612a5a57612a59612a00565b5b50919050565b7f4552433732313a20617070726f76616c20746f2063757272656e74206f776e6560008201527f7200000000000000000000000000000000000000000000000000000000000000602082015250565b6000612abc602183612436565b9150612ac782612a60565b604082019050919050565b60006020820190508181036000830152612aeb81612aaf565b9050919050565b7f4552433732313a20617070726f76652063616c6c6572206973206e6f7420746f60008201527f6b656e206f776e6572206f7220617070726f76656420666f7220616c6c000000602082015250565b6000612b4e603d83612436565b9150612b5982612af2565b604082019050919050565b60006020820190508181036000830152612b7d81612b41565b9050919050565b7f4552433732313a2063616c6c6572206973206e6f7420746f6b656e206f776e6560008201527f72206f7220617070726f76656400000000000000000000000000000000000000602082015250565b6000612be0602d83612436565b9150612beb82612b84565b604082019050919050565b60006020820190508181036000830152612c0f81612bd3565b9050919050565b7f455243373231456e756d657261626c653a206f776e657220696e646578206f7560008201527f74206f6620626f756e6473000000000000000000000000000000000000000000602082015250565b6000612c72602b83612436565b9150612c7d82612c16565b604082019050919050565b60006020820190508181036000830152612ca181612c65565b9050919050565b7f455243373231456e756d657261626c653a20676c6f62616c20696e646578206f60008201527f7574206f6620626f756e64730000000000000000000000000000000000000000602082015250565b6000612d04602c83612436565b9150612d0f82612ca8565b604082019050919050565b60006020820190508181036000830152612d3381612cf7565b9050919050565b7f4e487b7100000000000000000000000000000000000000000000000000000000600052603260045260246000fd5b7f4552433732313a20696e76616c696420746f6b656e2049440000000000000000600082015250565b6000612d9f601883612436565b9150612daa82612d69565b602082019050919050565b60006020820190508181036000830152612dce81612d92565b9050919050565b6000604082019050612dea6000830185612572565b612df76020830184612608565b9392505050565b7f4552433732313a2061646472657373207a65726f206973206e6f74206120766160008201527f6c6964206f776e65720000000000000000000000000000000000000000000000602082015250565b6000612e5a602983612436565b9150612e6582612dfe565b604082019050919050565b60006020820190508181036000830152612e8981612e4d565b9050919050565b7f4f776e61626c653a206e6577206f776e657220697320746865207a65726f206160008201527f6464726573730000000000000000000000000000000000000000000000000000602082015250565b6000612eec602683612436565b9150612ef782612e90565b604082019050919050565b60006020820190508181036000830152612f1b81612edf565b9050919050565b7f4552433732313a207472616e736665722066726f6d20696e636f72726563742060008201527f6f776e6572000000000000000000000000000000000000000000000000000000602082015250565b6000612f7e602583612436565b9150612f8982612f22565b604082019050919050565b60006020820190508181036000830152612fad81612f71565b9050919050565b7f4552433732313a207472616e7366657220746f20746865207a65726f2061646460008201527f7265737300000000000000000000000000000000000000000000000000000000602082015250565b6000613010602483612436565b915061301b82612fb4565b604082019050919050565b6000602082019050818103600083015261303f81613003565b9050919050565b7f4f776e61626c653a2063616c6c6572206973206e6f7420746865206f776e6572600082015250565b600061307c602083612436565b915061308782613046565b602082019050919050565b600060208201905081810360008301526130ab8161306f565b9050919050565b7f45524337323155524953746f726167653a2055524920736574206f66206e6f6e60008201527f6578697374656e7420746f6b656e000000000000000000000000000000000000602082015250565b600061310e602e83612436565b9150613119826130b2565b604082019050919050565b6000602082019050818103600083015261313d81613101565b9050919050565b60008190508160005260206000209050919050565b60006020601f8301049050919050565b600082821b905092915050565b6000600883026131a67fffffffffffffffffffffffffffffffffffffffffffffffffffffffffffffffff82613169565b6131b08683613169565b95508019841693508086168417925050509392505050565b6000819050919050565b60006131ed6131e86131e3846124dd565b6131c8565b6124dd565b9050919050565b6000819050919050565b613207836131d2565b61321b613213826131f4565b848454613176565b825550505050565b600090565b613230613223565b61323b8184846131fe565b505050565b5b8181101561325f57613254600082613228565b600181019050613241565b5050565b601f8211156132a45761327581613144565b61327e84613159565b8101602085101561328d578190505b6132a161329985613159565b830182613240565b50505b505050565b600082821c905092915050565b60006132c7600019846008026132a9565b1980831691505092915050565b60006132e083836132b6565b9150826002028217905092915050565b6132f98261242b565b67ffffffffffffffff8111156133125761331161268f565b5b61331c8254612a2f565b613327828285613263565b600060209050601f83116001811461335a5760008415613348578287015190505b61335285826132d4565b8655506133ba565b601f19841661336886613144565b60005b828110156133905784890151825560018201915060208501945060208101905061336b565b868310156133ad57848901516133a9601f8916826132b6565b8355505b6001600288020188555050505b505050505050565b7f4552433732313a20617070726f766520746f2063616c6c657200000000000000600082015250565b60006133f8601983612436565b9150613403826133c2565b602082019050919050565b60006020820190508181036000830152613427816133eb565b9050919050565b7f4552433732313a207472616e7366657220746f206e6f6e20455243373231526560008201527f63656976657220696d706c656d656e7465720000000000000000000000000000602082015250565b600061348a603283612436565b91506134958261342e565b604082019050919050565b600060208201905081810360008301526134b98161347d565b9050919050565b600081905092915050565b60006134d68261242b565b6134e081856134c0565b93506134f0818560208601612447565b80840191505092915050565b600061350882856134cb565b915061351482846134cb565b91508190509392505050565b600081519050919050565b600082825260208201905092915050565b600061354782613520565b613551818561352b565b9350613561818560208601612447565b61356a81612471565b840191505092915050565b600060808201905061358a6000830187612572565b6135976020830186612572565b6135a46040830185612608565b81810360608301526135b6818461353c565b905095945050505050565b6000815190506135d08161239c565b92915050565b6000602082840312156135ec576135eb612366565b5b60006135fa848285016135c1565b91505092915050565b7f455243373231456e756d657261626c653a20636f6e736563757469766520747260008201527f616e7366657273206e6f7420737570706f727465640000000000000000000000602082015250565b600061365f603583612436565b915061366a82613603565b604082019050919050565b6000602082019050818103600083015261368e81613652565b9050919050565b7f4552433732313a206d696e7420746f20746865207a65726f2061646472657373600082015250565b60006136cb602083612436565b91506136d682613695565b602082019050919050565b600060208201905081810360008301526136fa816136be565b9050919050565b7f4552433732313a20746f6b656e20616c7265616479206d696e74656400000000600082015250565b6000613737601c83612436565b915061374282613701565b602082019050919050565b600060208201905081810360008301526137668161372a565b9050919050565b7f4e487b7100000000000000000000000000000000000000000000000000000000600052601260045260246000fd5b7f4e487b7100000000000000000000000000000000000000000000000000000000600052601160045260246000fd5b60006137d6826124dd565b91506137e1836124dd565b92508282039050818111156137f9576137f861379c565b5b92915050565b7f4e487b7100000000000000000000000000000000000000000000000000000000600052603160045260246000fdfea2646970667358221220a361664812676559c1d8f940d132b6291b912e5b20924977c952d79c35b739aa64736f6c63430008130033",
  "linkReferences": {},
  "deployedLinkReferences": {}
}