{
  "_format": "hh-sol-artifact-1",
  "contractName": "GFGToken",
  "sourceName": "contracts/GFGToken.sol",
  "abi": [
    {
      "inputs": [],
      "stateMutability": "nonpayable",
      "type": "constructor"
    },
    {
      "anonymous": false,
      "inputs": [
        {
          "indexed": true,
          "internalType": "address",
          "name": "owner",
          "type": "address"
        },
        {
          "indexed": true,
          "internalType": "address",
          "name": "approved",
          "type": "address"
        },
        {
          "indexed": true,
          "internalType": "uint256",
          "name": "tokenId",
          "type": "uint256"
        }
      ],
      "name": "Approval",
      "type": "event"
    },
    {
      "anonymous": false,
      "inputs": [
        {
          "indexed": true,
          "internalType": "address",
          "name": "owner",
          "type": "address"
        },
        {
          "indexed": true,
          "internalType": "address",
          "name": "operator",
          "type": "address"
        },
        {
          "indexed": false,
          "internalType": "bool",
          "name": "approved",
          "type": "bool"
        }
      ],
      "name": "ApprovalForAll",
      "type": "event"
    },
    {
      "anonymous": false,
      "inputs": [
        {
          "indexed": false,
          "internalType": "uint256",
          "name": "_fromTokenId",
          "type": "uint256"
        },
        {
          "indexed": false,
          "internalType": "uint256",
          "name": "_toTokenId",
          "type": "uint256"
        }
      ],
      "name": "BatchMetadataUpdate",
      "type": "event"
    },
    {
      "anonymous": false,
      "inputs": [
        {
          "indexed": false,
          "internalType": "uint256",
          "name": "_tokenId",
          "type": "uint256"
        }
      ],
      "name": "MetadataUpdate",
      "type": "event"
    },
    {
      "anonymous": false,
      "inputs": [
        {
          "indexed": true,
          "internalType": "address",
          "name": "previousOwner",
          "type": "address"
        },
        {
          "indexed": true,
          "internalType": "address",
          "name": "newOwner",
          "type": "address"
        }
      ],
      "name": "OwnershipTransferred",
      "type": "event"
    },
    {
      "anonymous": false,
      "inputs": [
        {
          "indexed": true,
          "internalType": "address",
          "name": "from",
          "type": "address"
        },
        {
          "indexed": true,
          "internalType": "address",
          "name": "to",
          "type": "address"
        },
        {
          "indexed": true,
          "internalType": "uint256",
          "name": "tokenId",
          "type": "uint256"
        }
      ],
      "name": "Transfer",
      "type": "event"
    },
    {
      "inputs": [
        {
          "internalType": "address",
          "name": "to",
          "type": "address"
        },
        {
          "internalType": "uint256",
          "name": "tokenId",
          "type": "uint256"
        }
      ],
      "name": "approve",
      "outputs": [],
      "stateMutability": "nonpayable",
      "type": "function"
    },
    {
      "inputs": [
        {
          "internalType": "address",
          "name": "owner",
          "type": "address"
        }
      ],
      "name": "balanceOf",
      "outputs": [
        {
          "internalType": "uint256",
          "name": "",
          "type": "uint256"
        }
      ],
      "stateMutability": "view",
      "type": "function"
    },
    {
      "inputs": [
        {
          "internalType": "uint256",
          "name": "tokenId",
          "type": "uint256"
        }
      ],
      "name": "getApproved",
      "outputs": [
        {
          "internalType": "address",
          "name": "",
          "type": "address"
        }
      ],
      "stateMutability": "view",
      "type": "function"
    },
    {
      "inputs": [
        {
          "internalType": "address",
          "name": "owner",
          "type": "address"
        },
        {
          "internalType": "address",
          "name": "operator",
          "type": "address"
        }
      ],
      "name": "isApprovedForAll",
      "outputs": [
        {
          "internalType": "bool",
          "name": "",
          "type": "bool"
        }
      ],
      "stateMutability": "view",
      "type": "function"
    },
    {
      "inputs": [],
      "name": "name",
      "outputs": [
        {
          "internalType": "string",
          "name": "",
          "type": "string"
        }
      ],
      "stateMutability": "view",
      "type": "function"
    },
    {
      "inputs": [],
      "name": "owner",
      "outputs": [
        {
          "internalType": "address",
          "name": "",
          "type": "address"
        }
      ],
      "stateMutability": "view",
      "type": "function"
    },
    {
      "inputs": [
        {
          "internalType": "uint256",
          "name": "tokenId",
          "type": "uint256"
        }
      ],
      "name": "ownerOf",
      "outputs": [
        {
          "internalType": "address",
          "name": "",
          "type": "address"
        }
      ],
      "stateMutability": "view",
      "type": "function"
    },
    {
      "inputs": [],
      "name": "renounceOwnership",
      "outputs": [],
      "stateMutability": "nonpayable",
      "type": "function"
    },
    {
      "inputs": [
        {
          "internalType": "string",
          "name": "_uri",
          "type": "string"
        }
      ],
      "name": "safeMint",
      "outputs": [],
      "stateMutability": "nonpayable",
      "type": "function"
    },
    {
      "inputs": [
        {
          "internalType": "address",
          "name": "from",
          "type": "address"
        },
        {
          "internalType": "address",
          "name": "to",
          "type": "address"
        },
        {
          "internalType": "uint256",
          "name": "tokenId",
          "type": "uint256"
        }
      ],
      "name": "safeTransferFrom",
      "outputs": [],
      "stateMutability": "nonpayable",
      "type": "function"
    },
    {
      "inputs": [
        {
          "internalType": "address",
          "name": "from",
          "type": "address"
        },
        {
          "internalType": "address",
          "name": "to",
          "type": "address"
        },
        {
          "internalType": "uint256",
          "name": "tokenId",
          "type": "uint256"
        },
        {
          "internalType": "bytes",
          "name": "data",
          "type": "bytes"
        }
      ],
      "name": "safeTransferFrom",
      "outputs": [],
      "stateMutability": "nonpayable",
      "type": "function"
    },
    {
      "inputs": [
        {
          "internalType": "address",
          "name": "operator",
          "type": "address"
        },
        {
          "internalType": "bool",
          "name": "approved",
          "type": "bool"
        }
      ],
      "name": "setApprovalForAll",
      "outputs": [],
      "stateMutability": "nonpayable",
      "type": "function"
    },
    {
      "inputs": [
        {
          "internalType": "bytes4",
          "name": "interfaceId",
          "type": "bytes4"
        }
      ],
      "name": "supportsInterface",
      "outputs": [
        {
          "internalType": "bool",
          "name": "",
          "type": "bool"
        }
      ],
      "stateMutability": "view",
      "type": "function"
    },
    {
      "inputs": [],
      "name": "symbol",
      "outputs": [
        {
          "internalType": "string",
          "name": "",
          "type": "string"
        }
      ],
      "stateMutability": "view",
      "type": "function"
    },
    {
      "inputs": [
        {
          "internalType": "uint256",
          "name": "index",
          "type": "uint256"
        }
      ],
      "name": "tokenByIndex",
      "outputs": [
        {
          "internalType": "uint256",
          "name": "",
          "type": "uint256"
        }
      ],
      "stateMutability": "view",
      "type": "function"
    },
    {
      "inputs": [
        {
          "internalType": "address",
          "name": "owner",
          "type": "address"
        },
        {
          "internalType": "uint256",
          "name": "index",
          "type": "uint256"
        }
      ],
      "name": "tokenOfOwnerByIndex",
      "outputs": [
        {
          "internalType": "uint256",
          "name": "",
          "type": "uint256"
        }
      ],
      "stateMutability": "view",
      "type": "function"
    },
    {
      "inputs": [
        {
          "internalType": "uint256",
          "name": "tokenCount",
          "type": "uint256"
        }
      ],
      "name": "tokenURI",
      "outputs": [
        {
          "internalType": "string",
          "name": "",
          "type": "string"
        }
      ],
      "stateMutability": "view",
      "type": "function"
    },
    {
      "inputs": [],
      "name": "totalSupply",
      "outputs": [
        {
          "internalType": "uint256",
          "name": "",
          "type": "uint256"
        }
      ],
      "stateMutability": "view",
      "type": "function"
    },
    {
      "inputs": [
        {
          "internalType": "address",
          "name": "from",
          "type": "address"
        },
        {
          "internalType": "address",
          "name": "to",
          "type": "address"
        },
        {
          "internalType": "uint256",
          "name": "tokenId",
          "type": "uint256"
        }
      ],
      "name": "transferFrom",
      "outputs": [],
      "stateMutability": "nonpayable",
      "type": "function"
    },
    {
      "inputs": [
        {
          "internalType": "address",
          "name": "newOwner",
          "type": "address"
        }
      ],
      "name": "transferOwnership",
      "outputs": [],
      "stateMutability": "nonpayable",
      "type": "function"
    }
  ],
  "bytecode": "0x60806040523480156200001157600080fd5b506040518060400160405280600881526020017f474647546f6b656e0000000000000000000000000000000000000000000000008152506040518060400160405280600381526020017f474647000000000000000000000000000000000000000000000000000000000081525081600090816200008f919062000412565b508060019081620000a1919062000412565b505050620000c4620000b8620000ca60201b60201c565b620000d260201b60201c565b620004f9565b600033905090565b6000600b60009054906101000a900473ffffffffffffffffffffffffffffffffffffffff16905081600b60006101000a81548173ffffffffffffffffffffffffffffffffffffffff021916908373ffffffffffffffffffffffffffffffffffffffff1602179055508173ffffffffffffffffffffffffffffffffffffffff168173ffffffffffffffffffffffffffffffffffffffff167f8be0079c531659141344cd1fd0a4f28419497f9722a3daafe3b4186f6b6457e060405160405180910390a35050565b600081519050919050565b7f4e487b7100000000000000000000000000000000000000000000000000000000600052604160045260246000fd5b7f4e487b7100000000000000000000000000000000000000000000000000000000600052602260045260246000fd5b600060028204905060018216806200021a57607f821691505b60208210810362000230576200022f620001d2565b5b50919050565b60008190508160005260206000209050919050565b60006020601f8301049050919050565b600082821b905092915050565b6000600883026200029a7fffffffffffffffffffffffffffffffffffffffffffffffffffffffffffffffff826200025b565b620002a686836200025b565b95508019841693508086168417925050509392505050565b6000819050919050565b6000819050919050565b6000620002f3620002ed620002e784620002be565b620002c8565b620002be565b9050919050565b6000819050919050565b6200030f83620002d2565b620003276200031e82620002fa565b84845462000268565b825550505050565b600090565b6200033e6200032f565b6200034b81848462000304565b505050565b5b8181101562000373576200036760008262000334565b60018101905062000351565b5050565b601f821115620003c2576200038c8162000236565b62000397846200024b565b81016020851015620003a7578190505b620003bf620003b6856200024b565b83018262000350565b50505b505050565b600082821c905092915050565b6000620003e760001984600802620003c7565b1980831691505092915050565b6000620004028383620003d4565b9150826002028217905092915050565b6200041d8262000198565b67ffffffffffffffff811115620004395762000438620001a3565b5b62000445825462000201565b6200045282828562000377565b600060209050601f8311600181146200048a576000841562000475578287015190505b620004818582620003f4565b865550620004f1565b601f1984166200049a8662000236565b60005b82811015620004c4578489015182556001820191506020850194506020810190506200049d565b86831015620004e45784890151620004e0601f891682620003d4565b8355505b6001600288020188555050505b505050505050565b6137e780620005096000396000f3fe608060405234801561001057600080fd5b506004361061012c5760003560e01c8063695850fb116100ad578063a22cb46511610071578063a22cb46514610343578063b88d4fde1461035f578063c87b56dd1461037b578063e985e9c5146103ab578063f2fde38b146103db5761012c565b8063695850fb146102b157806370a08231146102cd578063715018a6146102fd5780638da5cb5b1461030757806395d89b41146103255761012c565b806323b872dd116100f457806323b872dd146101e95780632f745c591461020557806342842e0e146102355780634f6ccce7146102515780636352211e146102815761012c565b806301ffc9a71461013157806306fdde0314610161578063081812fc1461017f578063095ea7b3146101af57806318160ddd146101cb575b600080fd5b61014b60048036038101906101469190612374565b6103f7565b60405161015891906123bc565b60405180910390f35b610169610409565b6040516101769190612467565b60405180910390f35b610199600480360381019061019491906124bf565b61049b565b6040516101a6919061252d565b60405180910390f35b6101c960048036038101906101c49190612574565b6104e1565b005b6101d36105f8565b6040516101e091906125c3565b60405180910390f35b61020360048036038101906101fe91906125de565b610605565b005b61021f600480360381019061021a9190612574565b610665565b60405161022c91906125c3565b60405180910390f35b61024f600480360381019061024a91906125de565b61070a565b005b61026b600480360381019061026691906124bf565b61072a565b60405161027891906125c3565b60405180910390f35b61029b600480360381019061029691906124bf565b61079b565b6040516102a8919061252d565b60405180910390f35b6102cb60048036038101906102c69190612766565b610821565b005b6102e760048036038101906102e291906127af565b610859565b6040516102f491906125c3565b60405180910390f35b610305610910565b005b61030f610924565b60405161031c919061252d565b60405180910390f35b61032d61094e565b60405161033a9190612467565b60405180910390f35b61035d60048036038101906103589190612808565b6109e0565b005b610379600480360381019061037491906128e9565b6109f6565b005b610395600480360381019061039091906124bf565b610a58565b6040516103a29190612467565b60405180910390f35b6103c560048036038101906103c0919061296c565b610a6a565b6040516103d291906123bc565b60405180910390f35b6103f560048036038101906103f091906127af565b610afe565b005b600061040282610b81565b9050919050565b606060008054610418906129db565b80601f0160208091040260200160405190810160405280929190818152602001828054610444906129db565b80156104915780601f1061046657610100808354040283529160200191610491565b820191906000526020600020905b81548152906001019060200180831161047457829003601f168201915b5050505050905090565b60006104a682610be2565b6004600083815260200190815260200160002060009054906101000a900473ffffffffffffffffffffffffffffffffffffffff169050919050565b60006104ec8261079b565b90508073ffffffffffffffffffffffffffffffffffffffff168373ffffffffffffffffffffffffffffffffffffffff160361055c576040517f08c379a000000000000000000000000000000000000000000000000000000000815260040161055390612a7e565b60405180910390fd5b8073ffffffffffffffffffffffffffffffffffffffff1661057b610c2d565b73ffffffffffffffffffffffffffffffffffffffff1614806105aa57506105a9816105a4610c2d565b610a6a565b5b6105e9576040517f08c379a00000000000000000000000000000000000000000000000000000000081526004016105e090612b10565b60405180910390fd5b6105f38383610c35565b505050565b6000600880549050905090565b610616610610610c2d565b82610cee565b610655576040517f08c379a000000000000000000000000000000000000000000000000000000000815260040161064c90612ba2565b60405180910390fd5b610660838383610d83565b505050565b600061067083610859565b82106106b1576040517f08c379a00000000000000000000000000000000000000000000000000000000081526004016106a890612c34565b60405180910390fd5b600660008473ffffffffffffffffffffffffffffffffffffffff1673ffffffffffffffffffffffffffffffffffffffff168152602001908152602001600020600083815260200190815260200160002054905092915050565b610725838383604051806020016040528060008152506109f6565b505050565b60006107346105f8565b8210610775576040517f08c379a000000000000000000000000000000000000000000000000000000000815260040161076c90612cc6565b60405180910390fd5b6008828154811061078957610788612ce6565b5b90600052602060002001549050919050565b6000806107a78361107c565b9050600073ffffffffffffffffffffffffffffffffffffffff168173ffffffffffffffffffffffffffffffffffffffff1603610818576040517f08c379a000000000000000000000000000000000000000000000000000000000815260040161080f90612d61565b60405180910390fd5b80915050919050565b6108296110b9565b6000610835600c611137565b9050610841600c611145565b61084b338261115b565b6108558183611179565b5050565b60008073ffffffffffffffffffffffffffffffffffffffff168273ffffffffffffffffffffffffffffffffffffffff16036108c9576040517f08c379a00000000000000000000000000000000000000000000000000000000081526004016108c090612df3565b60405180910390fd5b600360008373ffffffffffffffffffffffffffffffffffffffff1673ffffffffffffffffffffffffffffffffffffffff168152602001908152602001600020549050919050565b6109186110b9565b610922600061121d565b565b6000600b60009054906101000a900473ffffffffffffffffffffffffffffffffffffffff16905090565b60606001805461095d906129db565b80601f0160208091040260200160405190810160405280929190818152602001828054610989906129db565b80156109d65780601f106109ab576101008083540402835291602001916109d6565b820191906000526020600020905b8154815290600101906020018083116109b957829003601f168201915b5050505050905090565b6109f26109eb610c2d565b83836112e3565b5050565b610a07610a01610c2d565b83610cee565b610a46576040517f08c379a0000000000000000000000000000000000000000000000000000000008152600401610a3d90612ba2565b60405180910390fd5b610a528484848461144f565b50505050565b6060610a63826114ab565b9050919050565b6000600560008473ffffffffffffffffffffffffffffffffffffffff1673ffffffffffffffffffffffffffffffffffffffff16815260200190815260200160002060008373ffffffffffffffffffffffffffffffffffffffff1673ffffffffffffffffffffffffffffffffffffffff16815260200190815260200160002060009054906101000a900460ff16905092915050565b610b066110b9565b600073ffffffffffffffffffffffffffffffffffffffff168173ffffffffffffffffffffffffffffffffffffffff1603610b75576040517f08c379a0000000000000000000000000000000000000000000000000000000008152600401610b6c90612e85565b60405180910390fd5b610b7e8161121d565b50565b6000634906490660e01b7bffffffffffffffffffffffffffffffffffffffffffffffffffffffff1916827bffffffffffffffffffffffffffffffffffffffffffffffffffffffff19161480610bdb5750610bda826115bd565b5b9050919050565b610beb81611637565b610c2a576040517f08c379a0000000000000000000000000000000000000000000000000000000008152600401610c2190612d61565b60405180910390fd5b50565b600033905090565b816004600083815260200190815260200160002060006101000a81548173ffffffffffffffffffffffffffffffffffffffff021916908373ffffffffffffffffffffffffffffffffffffffff160217905550808273ffffffffffffffffffffffffffffffffffffffff16610ca88361079b565b73ffffffffffffffffffffffffffffffffffffffff167f8c5be1e5ebec7d5bd14f71427d1e84f3dd0314c0f7b2291e5b200ac8c7c3b92560405160405180910390a45050565b600080610cfa8361079b565b90508073ffffffffffffffffffffffffffffffffffffffff168473ffffffffffffffffffffffffffffffffffffffff161480610d3c5750610d3b8185610a6a565b5b80610d7a57508373ffffffffffffffffffffffffffffffffffffffff16610d628461049b565b73ffffffffffffffffffffffffffffffffffffffff16145b91505092915050565b8273ffffffffffffffffffffffffffffffffffffffff16610da38261079b565b73ffffffffffffffffffffffffffffffffffffffff1614610df9576040517f08c379a0000000000000000000000000000000000000000000000000000000008152600401610df090612f17565b60405180910390fd5b600073ffffffffffffffffffffffffffffffffffffffff168273ffffffffffffffffffffffffffffffffffffffff1603610e68576040517f08c379a0000000000000000000000000000000000000000000000000000000008152600401610e5f90612fa9565b60405180910390fd5b610e758383836001611678565b8273ffffffffffffffffffffffffffffffffffffffff16610e958261079b565b73ffffffffffffffffffffffffffffffffffffffff1614610eeb576040517f08c379a0000000000000000000000000000000000000000000000000000000008152600401610ee290612f17565b60405180910390fd5b6004600082815260200190815260200160002060006101000a81549073ffffffffffffffffffffffffffffffffffffffff02191690556001600360008573ffffffffffffffffffffffffffffffffffffffff1673ffffffffffffffffffffffffffffffffffffffff168152602001908152602001600020600082825403925050819055506001600360008473ffffffffffffffffffffffffffffffffffffffff1673ffffffffffffffffffffffffffffffffffffffff16815260200190815260200160002060008282540192505081905550816002600083815260200190815260200160002060006101000a81548173ffffffffffffffffffffffffffffffffffffffff021916908373ffffffffffffffffffffffffffffffffffffffff160217905550808273ffffffffffffffffffffffffffffffffffffffff168473ffffffffffffffffffffffffffffffffffffffff167fddf252ad1be2c89b69c2b068fc378daa952ba7f163c4a11628f55a4df523b3ef60405160405180910390a4611077838383600161168a565b505050565b60006002600083815260200190815260200160002060009054906101000a900473ffffffffffffffffffffffffffffffffffffffff169050919050565b6110c1610c2d565b73ffffffffffffffffffffffffffffffffffffffff166110df610924565b73ffffffffffffffffffffffffffffffffffffffff1614611135576040517f08c379a000000000000000000000000000000000000000000000000000000000815260040161112c90613015565b60405180910390fd5b565b600081600001549050919050565b6001816000016000828254019250508190555050565b611175828260405180602001604052806000815250611690565b5050565b61118282611637565b6111c1576040517f08c379a00000000000000000000000000000000000000000000000000000000081526004016111b8906130a7565b60405180910390fd5b80600a600084815260200190815260200160002090816111e19190613273565b507ff8e1a15aba9398e019f0b49df1a4fde98ee17ae345cb5f6b5e2c27f5033e8ce78260405161121191906125c3565b60405180910390a15050565b6000600b60009054906101000a900473ffffffffffffffffffffffffffffffffffffffff16905081600b60006101000a81548173ffffffffffffffffffffffffffffffffffffffff021916908373ffffffffffffffffffffffffffffffffffffffff1602179055508173ffffffffffffffffffffffffffffffffffffffff168173ffffffffffffffffffffffffffffffffffffffff167f8be0079c531659141344cd1fd0a4f28419497f9722a3daafe3b4186f6b6457e060405160405180910390a35050565b8173ffffffffffffffffffffffffffffffffffffffff168373ffffffffffffffffffffffffffffffffffffffff1603611351576040517f08c379a000000000000000000000000000000000000000000000000000000000815260040161134890613391565b60405180910390fd5b80600560008573ffffffffffffffffffffffffffffffffffffffff1673ffffffffffffffffffffffffffffffffffffffff16815260200190815260200160002060008473ffffffffffffffffffffffffffffffffffffffff1673ffffffffffffffffffffffffffffffffffffffff16815260200190815260200160002060006101000a81548160ff0219169083151502179055508173ffffffffffffffffffffffffffffffffffffffff168373ffffffffffffffffffffffffffffffffffffffff167f17307eab39ab6107e8899845ad3d59bd9653f200f220920489ca2b5937696c318360405161144291906123bc565b60405180910390a3505050565b61145a848484610d83565b611466848484846116eb565b6114a5576040517f08c379a000000000000000000000000000000000000000000000000000000000815260040161149c90613423565b60405180910390fd5b50505050565b60606114b682610be2565b6000600a600084815260200190815260200160002080546114d6906129db565b80601f0160208091040260200160405190810160405280929190818152602001828054611502906129db565b801561154f5780601f106115245761010080835404028352916020019161154f565b820191906000526020600020905b81548152906001019060200180831161153257829003601f168201915b505050505090506000611560611872565b905060008151036115755781925050506115b8565b6000825111156115aa57808260405160200161159292919061347f565b604051602081830303815290604052925050506115b8565b6115b384611889565b925050505b919050565b60007f780e9d63000000000000000000000000000000000000000000000000000000007bffffffffffffffffffffffffffffffffffffffffffffffffffffffff1916827bffffffffffffffffffffffffffffffffffffffffffffffffffffffff19161480611630575061162f826118f1565b5b9050919050565b60008073ffffffffffffffffffffffffffffffffffffffff166116598361107c565b73ffffffffffffffffffffffffffffffffffffffff1614159050919050565b611684848484846119d3565b50505050565b50505050565b61169a8383611b31565b6116a760008484846116eb565b6116e6576040517f08c379a00000000000000000000000000000000000000000000000000000000081526004016116dd90613423565b60405180910390fd5b505050565b600061170c8473ffffffffffffffffffffffffffffffffffffffff16611d4e565b15611865578373ffffffffffffffffffffffffffffffffffffffff1663150b7a02611735610c2d565b8786866040518563ffffffff1660e01b815260040161175794939291906134f8565b6020604051808303816000875af192505050801561179357506040513d601f19601f820116820180604052508101906117909190613559565b60015b611815573d80600081146117c3576040519150601f19603f3d011682016040523d82523d6000602084013e6117c8565b606091505b50600081510361180d576040517f08c379a000000000000000000000000000000000000000000000000000000000815260040161180490613423565b60405180910390fd5b805181602001fd5b63150b7a0260e01b7bffffffffffffffffffffffffffffffffffffffffffffffffffffffff1916817bffffffffffffffffffffffffffffffffffffffffffffffffffffffff19161491505061186a565b600190505b949350505050565b606060405180602001604052806000815250905090565b606061189482610be2565b600061189e611872565b905060008151116118be57604051806020016040528060008152506118e9565b806118c884611d71565b6040516020016118d992919061347f565b6040516020818303038152906040525b915050919050565b60007f80ac58cd000000000000000000000000000000000000000000000000000000007bffffffffffffffffffffffffffffffffffffffffffffffffffffffff1916827bffffffffffffffffffffffffffffffffffffffffffffffffffffffff191614806119bc57507f5b5e139f000000000000000000000000000000000000000000000000000000007bffffffffffffffffffffffffffffffffffffffffffffffffffffffff1916827bffffffffffffffffffffffffffffffffffffffffffffffffffffffff1916145b806119cc57506119cb82611e3f565b5b9050919050565b6119df84848484611ea9565b6001811115611a23576040517f08c379a0000000000000000000000000000000000000000000000000000000008152600401611a1a906135f8565b60405180910390fd5b6000829050600073ffffffffffffffffffffffffffffffffffffffff168573ffffffffffffffffffffffffffffffffffffffff1603611a6a57611a6581611eaf565b611aa9565b8373ffffffffffffffffffffffffffffffffffffffff168573ffffffffffffffffffffffffffffffffffffffff1614611aa857611aa78582611ef8565b5b5b600073ffffffffffffffffffffffffffffffffffffffff168473ffffffffffffffffffffffffffffffffffffffff1603611aeb57611ae681612065565b611b2a565b8473ffffffffffffffffffffffffffffffffffffffff168473ffffffffffffffffffffffffffffffffffffffff1614611b2957611b288482612136565b5b5b5050505050565b600073ffffffffffffffffffffffffffffffffffffffff168273ffffffffffffffffffffffffffffffffffffffff1603611ba0576040517f08c379a0000000000000000000000000000000000000000000000000000000008152600401611b9790613664565b60405180910390fd5b611ba981611637565b15611be9576040517f08c379a0000000000000000000000000000000000000000000000000000000008152600401611be0906136d0565b60405180910390fd5b611bf7600083836001611678565b611c0081611637565b15611c40576040517f08c379a0000000000000000000000000000000000000000000000000000000008152600401611c37906136d0565b60405180910390fd5b6001600360008473ffffffffffffffffffffffffffffffffffffffff1673ffffffffffffffffffffffffffffffffffffffff16815260200190815260200160002060008282540192505081905550816002600083815260200190815260200160002060006101000a81548173ffffffffffffffffffffffffffffffffffffffff021916908373ffffffffffffffffffffffffffffffffffffffff160217905550808273ffffffffffffffffffffffffffffffffffffffff16600073ffffffffffffffffffffffffffffffffffffffff167fddf252ad1be2c89b69c2b068fc378daa952ba7f163c4a11628f55a4df523b3ef60405160405180910390a4611d4a60008383600161168a565b5050565b6000808273ffffffffffffffffffffffffffffffffffffffff163b119050919050565b606060006001611d80846121b5565b01905060008167ffffffffffffffff811115611d9f57611d9e61263b565b5b6040519080825280601f01601f191660200182016040528015611dd15781602001600182028036833780820191505090505b509050600082602001820190505b600115611e34578080600190039150507f3031323334353637383961626364656600000000000000000000000000000000600a86061a8153600a8581611e2857611e276136f0565b5b04945060008503611ddf575b819350505050919050565b60007f01ffc9a7000000000000000000000000000000000000000000000000000000007bffffffffffffffffffffffffffffffffffffffffffffffffffffffff1916827bffffffffffffffffffffffffffffffffffffffffffffffffffffffff1916149050919050565b50505050565b6008805490506009600083815260200190815260200160002081905550600881908060018154018082558091505060019003906000526020600020016000909190919091505550565b60006001611f0584610859565b611f0f919061374e565b9050600060076000848152602001908152602001600020549050818114611ff4576000600660008673ffffffffffffffffffffffffffffffffffffffff1673ffffffffffffffffffffffffffffffffffffffff168152602001908152602001600020600084815260200190815260200160002054905080600660008773ffffffffffffffffffffffffffffffffffffffff1673ffffffffffffffffffffffffffffffffffffffff168152602001908152602001600020600084815260200190815260200160002081905550816007600083815260200190815260200160002081905550505b6007600084815260200190815260200160002060009055600660008573ffffffffffffffffffffffffffffffffffffffff1673ffffffffffffffffffffffffffffffffffffffff16815260200190815260200160002060008381526020019081526020016000206000905550505050565b60006001600880549050612079919061374e565b90506000600960008481526020019081526020016000205490506000600883815481106120a9576120a8612ce6565b5b9060005260206000200154905080600883815481106120cb576120ca612ce6565b5b90600052602060002001819055508160096000838152602001908152602001600020819055506009600085815260200190815260200160002060009055600880548061211a57612119613782565b5b6001900381819060005260206000200160009055905550505050565b600061214183610859565b905081600660008573ffffffffffffffffffffffffffffffffffffffff1673ffffffffffffffffffffffffffffffffffffffff168152602001908152602001600020600083815260200190815260200160002081905550806007600084815260200190815260200160002081905550505050565b600080600090507a184f03e93ff9f4daa797ed6e38ed64bf6a1f0100000000000000008310612213577a184f03e93ff9f4daa797ed6e38ed64bf6a1f0100000000000000008381612209576122086136f0565b5b0492506040810190505b6d04ee2d6d415b85acef81000000008310612250576d04ee2d6d415b85acef81000000008381612246576122456136f0565b5b0492506020810190505b662386f26fc10000831061227f57662386f26fc100008381612275576122746136f0565b5b0492506010810190505b6305f5e10083106122a8576305f5e100838161229e5761229d6136f0565b5b0492506008810190505b61271083106122cd5761271083816122c3576122c26136f0565b5b0492506004810190505b606483106122f057606483816122e6576122e56136f0565b5b0492506002810190505b600a83106122ff576001810190505b80915050919050565b6000604051905090565b600080fd5b600080fd5b60007fffffffff0000000000000000000000000000000000000000000000000000000082169050919050565b6123518161231c565b811461235c57600080fd5b50565b60008135905061236e81612348565b92915050565b60006020828403121561238a57612389612312565b5b60006123988482850161235f565b91505092915050565b60008115159050919050565b6123b6816123a1565b82525050565b60006020820190506123d160008301846123ad565b92915050565b600081519050919050565b600082825260208201905092915050565b60005b838110156124115780820151818401526020810190506123f6565b60008484015250505050565b6000601f19601f8301169050919050565b6000612439826123d7565b61244381856123e2565b93506124538185602086016123f3565b61245c8161241d565b840191505092915050565b60006020820190508181036000830152612481818461242e565b905092915050565b6000819050919050565b61249c81612489565b81146124a757600080fd5b50565b6000813590506124b981612493565b92915050565b6000602082840312156124d5576124d4612312565b5b60006124e3848285016124aa565b91505092915050565b600073ffffffffffffffffffffffffffffffffffffffff82169050919050565b6000612517826124ec565b9050919050565b6125278161250c565b82525050565b6000602082019050612542600083018461251e565b92915050565b6125518161250c565b811461255c57600080fd5b50565b60008135905061256e81612548565b92915050565b6000806040838503121561258b5761258a612312565b5b60006125998582860161255f565b92505060206125aa858286016124aa565b9150509250929050565b6125bd81612489565b82525050565b60006020820190506125d860008301846125b4565b92915050565b6000806000606084860312156125f7576125f6612312565b5b60006126058682870161255f565b93505060206126168682870161255f565b9250506040612627868287016124aa565b9150509250925092565b600080fd5b600080fd5b7f4e487b7100000000000000000000000000000000000000000000000000000000600052604160045260246000fd5b6126738261241d565b810181811067ffffffffffffffff821117156126925761269161263b565b5b80604052505050565b60006126a5612308565b90506126b1828261266a565b919050565b600067ffffffffffffffff8211156126d1576126d061263b565b5b6126da8261241d565b9050602081019050919050565b82818337600083830152505050565b6000612709612704846126b6565b61269b565b90508281526020810184848401111561272557612724612636565b5b6127308482856126e7565b509392505050565b600082601f83011261274d5761274c612631565b5b813561275d8482602086016126f6565b91505092915050565b60006020828403121561277c5761277b612312565b5b600082013567ffffffffffffffff81111561279a57612799612317565b5b6127a684828501612738565b91505092915050565b6000602082840312156127c5576127c4612312565b5b60006127d38482850161255f565b91505092915050565b6127e5816123a1565b81146127f057600080fd5b50565b600081359050612802816127dc565b92915050565b6000806040838503121561281f5761281e612312565b5b600061282d8582860161255f565b925050602061283e858286016127f3565b9150509250929050565b600067ffffffffffffffff8211156128635761286261263b565b5b61286c8261241d565b9050602081019050919050565b600061288c61288784612848565b61269b565b9050828152602081018484840111156128a8576128a7612636565b5b6128b38482856126e7565b509392505050565b600082601f8301126128d0576128cf612631565b5b81356128e0848260208601612879565b91505092915050565b6000806000806080858703121561290357612902612312565b5b60006129118782880161255f565b94505060206129228782880161255f565b9350506040612933878288016124aa565b925050606085013567ffffffffffffffff81111561295457612953612317565b5b612960878288016128bb565b91505092959194509250565b6000806040838503121561298357612982612312565b5b60006129918582860161255f565b92505060206129a28582860161255f565b9150509250929050565b7f4e487b7100000000000000000000000000000000000000000000000000000000600052602260045260246000fd5b600060028204905060018216806129f357607f821691505b602082108103612a0657612a056129ac565b5b50919050565b7f4552433732313a20617070726f76616c20746f2063757272656e74206f776e6560008201527f7200000000000000000000000000000000000000000000000000000000000000602082015250565b6000612a686021836123e2565b9150612a7382612a0c565b604082019050919050565b60006020820190508181036000830152612a9781612a5b565b9050919050565b7f4552433732313a20617070726f76652063616c6c6572206973206e6f7420746f60008201527f6b656e206f776e6572206f7220617070726f76656420666f7220616c6c000000602082015250565b6000612afa603d836123e2565b9150612b0582612a9e565b604082019050919050565b60006020820190508181036000830152612b2981612aed565b9050919050565b7f4552433732313a2063616c6c6572206973206e6f7420746f6b656e206f776e6560008201527f72206f7220617070726f76656400000000000000000000000000000000000000602082015250565b6000612b8c602d836123e2565b9150612b9782612b30565b604082019050919050565b60006020820190508181036000830152612bbb81612b7f565b9050919050565b7f455243373231456e756d657261626c653a206f776e657220696e646578206f7560008201527f74206f6620626f756e6473000000000000000000000000000000000000000000602082015250565b6000612c1e602b836123e2565b9150612c2982612bc2565b604082019050919050565b60006020820190508181036000830152612c4d81612c11565b9050919050565b7f455243373231456e756d657261626c653a20676c6f62616c20696e646578206f60008201527f7574206f6620626f756e64730000000000000000000000000000000000000000602082015250565b6000612cb0602c836123e2565b9150612cbb82612c54565b604082019050919050565b60006020820190508181036000830152612cdf81612ca3565b9050919050565b7f4e487b7100000000000000000000000000000000000000000000000000000000600052603260045260246000fd5b7f4552433732313a20696e76616c696420746f6b656e2049440000000000000000600082015250565b6000612d4b6018836123e2565b9150612d5682612d15565b602082019050919050565b60006020820190508181036000830152612d7a81612d3e565b9050919050565b7f4552433732313a2061646472657373207a65726f206973206e6f74206120766160008201527f6c6964206f776e65720000000000000000000000000000000000000000000000602082015250565b6000612ddd6029836123e2565b9150612de882612d81565b604082019050919050565b60006020820190508181036000830152612e0c81612dd0565b9050919050565b7f4f776e61626c653a206e6577206f776e657220697320746865207a65726f206160008201527f6464726573730000000000000000000000000000000000000000000000000000602082015250565b6000612e6f6026836123e2565b9150612e7a82612e13565b604082019050919050565b60006020820190508181036000830152612e9e81612e62565b9050919050565b7f4552433732313a207472616e736665722066726f6d20696e636f72726563742060008201527f6f776e6572000000000000000000000000000000000000000000000000000000602082015250565b6000612f016025836123e2565b9150612f0c82612ea5565b604082019050919050565b60006020820190508181036000830152612f3081612ef4565b9050919050565b7f4552433732313a207472616e7366657220746f20746865207a65726f2061646460008201527f7265737300000000000000000000000000000000000000000000000000000000602082015250565b6000612f936024836123e2565b9150612f9e82612f37565b604082019050919050565b60006020820190508181036000830152612fc281612f86565b9050919050565b7f4f776e61626c653a2063616c6c6572206973206e6f7420746865206f776e6572600082015250565b6000612fff6020836123e2565b915061300a82612fc9565b602082019050919050565b6000602082019050818103600083015261302e81612ff2565b9050919050565b7f45524337323155524953746f726167653a2055524920736574206f66206e6f6e60008201527f6578697374656e7420746f6b656e000000000000000000000000000000000000602082015250565b6000613091602e836123e2565b915061309c82613035565b604082019050919050565b600060208201905081810360008301526130c081613084565b9050919050565b60008190508160005260206000209050919050565b60006020601f8301049050919050565b600082821b905092915050565b6000600883026131297fffffffffffffffffffffffffffffffffffffffffffffffffffffffffffffffff826130ec565b61313386836130ec565b95508019841693508086168417925050509392505050565b6000819050919050565b600061317061316b61316684612489565b61314b565b612489565b9050919050565b6000819050919050565b61318a83613155565b61319e61319682613177565b8484546130f9565b825550505050565b600090565b6131b36131a6565b6131be818484613181565b505050565b5b818110156131e2576131d76000826131ab565b6001810190506131c4565b5050565b601f821115613227576131f8816130c7565b613201846130dc565b81016020851015613210578190505b61322461321c856130dc565b8301826131c3565b50505b505050565b600082821c905092915050565b600061324a6000198460080261322c565b1980831691505092915050565b60006132638383613239565b9150826002028217905092915050565b61327c826123d7565b67ffffffffffffffff8111156132955761329461263b565b5b61329f82546129db565b6132aa8282856131e6565b600060209050601f8311600181146132dd57600084156132cb578287015190505b6132d58582613257565b86555061333d565b601f1984166132eb866130c7565b60005b82811015613313578489015182556001820191506020850194506020810190506132ee565b86831015613330578489015161332c601f891682613239565b8355505b6001600288020188555050505b505050505050565b7f4552433732313a20617070726f766520746f2063616c6c657200000000000000600082015250565b600061337b6019836123e2565b915061338682613345565b602082019050919050565b600060208201905081810360008301526133aa8161336e565b9050919050565b7f4552433732313a207472616e7366657220746f206e6f6e20455243373231526560008201527f63656976657220696d706c656d656e7465720000000000000000000000000000602082015250565b600061340d6032836123e2565b9150613418826133b1565b604082019050919050565b6000602082019050818103600083015261343c81613400565b9050919050565b600081905092915050565b6000613459826123d7565b6134638185613443565b93506134738185602086016123f3565b80840191505092915050565b600061348b828561344e565b9150613497828461344e565b91508190509392505050565b600081519050919050565b600082825260208201905092915050565b60006134ca826134a3565b6134d481856134ae565b93506134e48185602086016123f3565b6134ed8161241d565b840191505092915050565b600060808201905061350d600083018761251e565b61351a602083018661251e565b61352760408301856125b4565b818103606083015261353981846134bf565b905095945050505050565b60008151905061355381612348565b92915050565b60006020828403121561356f5761356e612312565b5b600061357d84828501613544565b91505092915050565b7f455243373231456e756d657261626c653a20636f6e736563757469766520747260008201527f616e7366657273206e6f7420737570706f727465640000000000000000000000602082015250565b60006135e26035836123e2565b91506135ed82613586565b604082019050919050565b60006020820190508181036000830152613611816135d5565b9050919050565b7f4552433732313a206d696e7420746f20746865207a65726f2061646472657373600082015250565b600061364e6020836123e2565b915061365982613618565b602082019050919050565b6000602082019050818103600083015261367d81613641565b9050919050565b7f4552433732313a20746f6b656e20616c7265616479206d696e74656400000000600082015250565b60006136ba601c836123e2565b91506136c582613684565b602082019050919050565b600060208201905081810360008301526136e9816136ad565b9050919050565b7f4e487b7100000000000000000000000000000000000000000000000000000000600052601260045260246000fd5b7f4e487b7100000000000000000000000000000000000000000000000000000000600052601160045260246000fd5b600061375982612489565b915061376483612489565b925082820390508181111561377c5761377b61371f565b5b92915050565b7f4e487b7100000000000000000000000000000000000000000000000000000000600052603160045260246000fdfea264697066735822122000587c63cbe8258a9f1f6604a948ef722b92db32b977133feb89ff2d1ec998a564736f6c63430008130033",
  "linkReferences": {},
  "deployedLinkReferences": {}
}