{
  "_format": "hh-sol-artifact-1",
  "contractName": "TokenFarm",
  "sourceName": "contracts/TokenFarm.sol",
  "abi": [
    {
      "inputs": [
        {
          "internalType": "contract FarmToken",
          "name": "_farmToken",
          "type": "address"
        },
        {
          "internalType": "contract StakingToken",
          "name": "_stakingToken",
          "type": "address"
        }
      ],
      "stateMutability": "nonpayable",
      "type": "constructor"
    },
    {
      "inputs": [],
      "name": "farmToken",
      "outputs": [
        {
          "internalType": "contract FarmToken",
          "name": "",
          "type": "address"
        }
      ],
      "stateMutability": "view",
      "type": "function"
    },
    {
      "inputs": [
        {
          "internalType": "address",
          "name": "",
          "type": "address"
        }
      ],
      "name": "hasStaked",
      "outputs": [
        {
          "internalType": "bool",
          "name": "",
          "type": "bool"
        }
      ],
      "stateMutability": "view",
      "type": "function"
    },
    {
      "inputs": [],
      "name": "issueTokens",
      "outputs": [],
      "stateMutability": "nonpayable",
      "type": "function"
    },
    {
      "inputs": [
        {
          "internalType": "uint256",
          "name": "_amount",
          "type": "uint256"
        }
      ],
      "name": "stakeTokens",
      "outputs": [],
      "stateMutability": "nonpayable",
      "type": "function"
    },
    {
      "inputs": [
        {
          "internalType": "uint256",
          "name": "",
          "type": "uint256"
        }
      ],
      "name": "stakers",
      "outputs": [
        {
          "internalType": "address",
          "name": "",
          "type": "address"
        }
      ],
      "stateMutability": "view",
      "type": "function"
    },
    {
      "inputs": [
        {
          "internalType": "address",
          "name": "",
          "type": "address"
        }
      ],
      "name": "stakingBalance",
      "outputs": [
        {
          "internalType": "uint256",
          "name": "",
          "type": "uint256"
        }
      ],
      "stateMutability": "view",
      "type": "function"
    },
    {
      "inputs": [],
      "name": "stakingToken",
      "outputs": [
        {
          "internalType": "contract StakingToken",
          "name": "",
          "type": "address"
        }
      ],
      "stateMutability": "view",
      "type": "function"
    },
    {
      "inputs": [],
      "name": "unstakeTokens",
      "outputs": [],
      "stateMutability": "nonpayable",
      "type": "function"
    }
  ],
  "bytecode": "0x60806040523480156200001157600080fd5b5060405162000f0238038062000f028339818101604052810190620000379190620000ee565b816000806101000a81548173ffffffffffffffffffffffffffffffffffffffff021916908373ffffffffffffffffffffffffffffffffffffffff16021790555080600160006101000a81548173ffffffffffffffffffffffffffffffffffffffff021916908373ffffffffffffffffffffffffffffffffffffffff1602179055505050620001bf565b600081519050620000d1816200018b565b92915050565b600081519050620000e881620001a5565b92915050565b600080604083850312156200010257600080fd5b60006200011285828601620000c0565b92505060206200012585828601620000d7565b9150509250929050565b60006200013c826200016b565b9050919050565b600062000150826200012f565b9050919050565b600062000164826200012f565b9050919050565b600073ffffffffffffffffffffffffffffffffffffffff82169050919050565b620001968162000143565b8114620001a257600080fd5b50565b620001b08162000157565b8114620001bc57600080fd5b50565b610d3380620001cf6000396000f3fe608060405234801561001057600080fd5b50600436106100885760003560e01c8063a5ce413b1161005b578063a5ce413b14610101578063c2442f931461010b578063c93c8f3414610129578063fd5e6dd11461015957610088565b806345bc78ab1461008d57806360ab5852146100bd57806372f702f3146100c75780637547c7a3146100e5575b600080fd5b6100a760048036038101906100a291906108dc565b610189565b6040516100b49190610b2e565b60405180910390f35b6100c56101a1565b005b6100cf61038a565b6040516100dc9190610ad3565b60405180910390f35b6100ff60048036038101906100fa919061092e565b6103b0565b005b610109610643565b005b61011361081a565b6040516101209190610ab8565b60405180910390f35b610143600480360381019061013e91906108dc565b61083e565b6040516101509190610a9d565b60405180910390f35b610173600480360381019061016e919061092e565b61085e565b6040516101809190610a22565b60405180910390f35b60036020528060005260406000206000915090505481565b60005b600280549050811015610387576000600282815481106101ed577f4e487b7100000000000000000000000000000000000000000000000000000000600052603260045260246000fd5b9060005260206000200160009054906101000a900473ffffffffffffffffffffffffffffffffffffffff1690506000600360008373ffffffffffffffffffffffffffffffffffffffff1673ffffffffffffffffffffffffffffffffffffffff1681526020019081526020016000205490506000811180156102be575060011515600460008473ffffffffffffffffffffffffffffffffffffffff1673ffffffffffffffffffffffffffffffffffffffff16815260200190815260200160002060009054906101000a900460ff161515145b156103725760008054906101000a900473ffffffffffffffffffffffffffffffffffffffff1673ffffffffffffffffffffffffffffffffffffffff1663a9059cbb83836040518363ffffffff1660e01b815260040161031e929190610a74565b602060405180830381600087803b15801561033857600080fd5b505af115801561034c573d6000803e3d6000fd5b505050506040513d601f19601f820116820180604052508101906103709190610905565b505b5050808061037f90610c40565b9150506101a4565b50565b600160009054906101000a900473ffffffffffffffffffffffffffffffffffffffff1681565b600081116103f3576040517f08c379a00000000000000000000000000000000000000000000000000000000081526004016103ea90610b0e565b60405180910390fd5b600160009054906101000a900473ffffffffffffffffffffffffffffffffffffffff1673ffffffffffffffffffffffffffffffffffffffff166323b872dd3330846040518463ffffffff1660e01b815260040161045293929190610a3d565b602060405180830381600087803b15801561046c57600080fd5b505af1158015610480573d6000803e3d6000fd5b505050506040513d601f19601f820116820180604052508101906104a49190610905565b5080600360003373ffffffffffffffffffffffffffffffffffffffff1673ffffffffffffffffffffffffffffffffffffffff168152602001908152602001600020546104f09190610b5a565b600360003373ffffffffffffffffffffffffffffffffffffffff1673ffffffffffffffffffffffffffffffffffffffff16815260200190815260200160002081905550600460003373ffffffffffffffffffffffffffffffffffffffff1673ffffffffffffffffffffffffffffffffffffffff16815260200190815260200160002060009054906101000a900460ff166105e8576002339080600181540180825580915050600190039060005260206000200160009091909190916101000a81548173ffffffffffffffffffffffffffffffffffffffff021916908373ffffffffffffffffffffffffffffffffffffffff1602179055505b6001600460003373ffffffffffffffffffffffffffffffffffffffff1673ffffffffffffffffffffffffffffffffffffffff16815260200190815260200160002060006101000a81548160ff02191690831515021790555050565b6000600360003373ffffffffffffffffffffffffffffffffffffffff1673ffffffffffffffffffffffffffffffffffffffff168152602001908152602001600020549050600081116106ca576040517f08c379a00000000000000000000000000000000000000000000000000000000081526004016106c190610aee565b60405180910390fd5b600160009054906101000a900473ffffffffffffffffffffffffffffffffffffffff1673ffffffffffffffffffffffffffffffffffffffff1663a9059cbb33836040518363ffffffff1660e01b8152600401610727929190610a74565b602060405180830381600087803b15801561074157600080fd5b505af1158015610755573d6000803e3d6000fd5b505050506040513d601f19601f820116820180604052508101906107799190610905565b506000600360003373ffffffffffffffffffffffffffffffffffffffff1673ffffffffffffffffffffffffffffffffffffffff168152602001908152602001600020819055506000600460003373ffffffffffffffffffffffffffffffffffffffff1673ffffffffffffffffffffffffffffffffffffffff16815260200190815260200160002060006101000a81548160ff02191690831515021790555050565b60008054906101000a900473ffffffffffffffffffffffffffffffffffffffff1681565b60046020528060005260406000206000915054906101000a900460ff1681565b6002818154811061086e57600080fd5b906000526020600020016000915054906101000a900473ffffffffffffffffffffffffffffffffffffffff1681565b6000813590506108ac81610cb8565b92915050565b6000815190506108c181610ccf565b92915050565b6000813590506108d681610ce6565b92915050565b6000602082840312156108ee57600080fd5b60006108fc8482850161089d565b91505092915050565b60006020828403121561091757600080fd5b6000610925848285016108b2565b91505092915050565b60006020828403121561094057600080fd5b600061094e848285016108c7565b91505092915050565b61096081610bb0565b82525050565b61096f81610bc2565b82525050565b61097e81610bf8565b82525050565b61098d81610c1c565b82525050565b60006109a0601b83610b49565b91507f7374616b696e672062616c616e63652063616e6e6f74206265203000000000006000830152602082019050919050565b60006109e0601283610b49565b91507f616d6f756e742063616e6e6f74206265203000000000000000000000000000006000830152602082019050919050565b610a1c81610bee565b82525050565b6000602082019050610a376000830184610957565b92915050565b6000606082019050610a526000830186610957565b610a5f6020830185610957565b610a6c6040830184610a13565b949350505050565b6000604082019050610a896000830185610957565b610a966020830184610a13565b9392505050565b6000602082019050610ab26000830184610966565b92915050565b6000602082019050610acd6000830184610975565b92915050565b6000602082019050610ae86000830184610984565b92915050565b60006020820190508181036000830152610b0781610993565b9050919050565b60006020820190508181036000830152610b27816109d3565b9050919050565b6000602082019050610b436000830184610a13565b92915050565b600082825260208201905092915050565b6000610b6582610bee565b9150610b7083610bee565b9250827fffffffffffffffffffffffffffffffffffffffffffffffffffffffffffffffff03821115610ba557610ba4610c89565b5b828201905092915050565b6000610bbb82610bce565b9050919050565b60008115159050919050565b600073ffffffffffffffffffffffffffffffffffffffff82169050919050565b6000819050919050565b6000610c0382610c0a565b9050919050565b6000610c1582610bce565b9050919050565b6000610c2782610c2e565b9050919050565b6000610c3982610bce565b9050919050565b6000610c4b82610bee565b91507fffffffffffffffffffffffffffffffffffffffffffffffffffffffffffffffff821415610c7e57610c7d610c89565b5b600182019050919050565b7f4e487b7100000000000000000000000000000000000000000000000000000000600052601160045260246000fd5b610cc181610bb0565b8114610ccc57600080fd5b50565b610cd881610bc2565b8114610ce357600080fd5b50565b610cef81610bee565b8114610cfa57600080fd5b5056fea2646970667358221220dc2aed6894bec1ca411786240608d57703e8fb5589081e0ba20f1e294f9e4f2964736f6c63430008000033",
  "linkReferences": {},
  "deployedLinkReferences": {}
}